S00D000054616368792E737265631E
S1130000B82B0020510300004D0300004D030000F5
S113001000000000000000000000000000000000DC
S11300200000000000000000000000004D0300007C
S113003000000000000000004D0300004D0300001C
S11300404D0300004D030000C51200004D030000E5
S11300504D0300004D0300004D0300004D0300005C
S11300604D0300004D0300004D0300004D0300004C
S11300704D0300004D0300004D0300004D0300003C
S11300804D0300004D0300004D0300004D0300002C
S11300904D0300004D030000952300004D030000B4
S11300A04D0300004D03000010B5064C2378002BCF
S11300B007D1054B002B02D0044800E000BF012308
S11300C0237010BD280A0020000000002CA50000A9
S11300D0084B10B5002B03D00749084800E000BFC7
S11300E007480368002B00D110BD064B002BFBD042
S11300F09847F9E7000000002C0A00202CA5000016
S11301002CA500000000000010B50A0000680021C2
S1130110014B984710BDC046D102000000B583B022
S113012001606B46D91D064B9847002805D16B46E4
S113013007331B78E52B00D0043003B000BDC04664
S11301400901000010B50A0000682C21014B9847F2
S113015010BDC046E902000010B50A0000682D2158
S1130160014B984710BDC046D102000010B50A00EB
S113017000682D21014B984710BDC046E9020000DC
S113018010B50A00006806233221014CA04710BDB7
S11301901D03000010B50A0000683821014B984780
S11301A010BDC046E902000010B50A0000683921FC
S11301B0014B984710BDC046D102000010B582B073
S11301C004006B46D91D074B9847002801D002B0A4
S11301D010BD6B46D979082319432000024B984778
S11301E0F5E7C046590100006D01000010B582B06A
S11301F004006B46D91D074B9847002801D002B074
S113020010BD6B46D979082399432000024B9847C7
S1130210F5E7C046590100006D010000F0B5C6467F
S113022000B582B00D006946194B9847041E2AD1C7
S11302306B465B781B026A461078184300B2154B74
S113024098469847144F0022144BB847144EB047B1
S113025028606B46DB781B026A469078184300B22C
S1130260C04700220D4BB847B04768606B465B79C6
S11302701B026A461079184300B2C0470022074B9C
S1130280B847B047A860200002B004BC9046F0BD57
S1130290810100003D410000A93500000000703FCD
S11302A0D542000070B50C0015001E00016082806C
S11302B083600800044B9847320029002000034B58
S11302C09847002070BDC046150A0000210A0000AE
S11302D010B500680123034CA0470323C017034053
S11302E0180010BD350A000000B585B003AB1970C5
S11302F05A70828869460A8002220192054A4A801D
S113030002930068044B98470323C0170340180066
S113031005B000BD0080FFFF7D0A000010B5006835
S1130320024CA047C00F400010BDC046350A000073
S113033010B5034B9847034B9847034B984710BDA0
S1130340BD0800006D24000025230000FEE7000026
S113035010B5174A174B9A4211D01A00164B9A42FD
S11303600DD2164A03339B1A9B0801339B000022CB
S113037010480F498C58845004329A42FAD1104ADA
S1130380104B9A420AD2D3430E495B1803218B4384
S113039004339B18002102C29342FCD10A4AFF2174
S11303A00A4B8B4393600A4B98470A4B9847FEE7E6
S11303B02CA5000000000020280A002004000020D2
S11303C0280A0020B40B002000ED00E0000000002B
S11303D0B94600005520000030B5114BAC22520044
S11303E0995C0125A94301242143C9B299549E2053
S11303F04000195C4A3AFF3A91430D3A11431954AB
S11304005A21FF315A5CAA432243D2B25A541A5C8D
S11304104B39FF390A4011310A431A5430BDC046E2
S113042000600041064B4021C02299500331043A38
S11304309950044AD36941390B43D3617047C0468C
S1130440001C00400008004010B5054B98470022EE
S113045004490548054B9847054B984710BDC046CD
S11304602504000000040042E40A0020A90F000053
S1130470D9030000F0B5CE46474680B5C025ED054A
S113048084248021C90529511A4BDE201A5C0426D4
S1130490B44666463243D2B21A5498229146A950C1
S11304A0195C0127B94301263143C9B219541F38D5
S11304B0195C893A91430D3A11431954802212066A
S11304C090462A515B34195D62461143C9B21955ED
S11304D0424649466A501A5DBA433243D2B21A556B
S11304E01A5C89390A4011310A431A540CBC9046EB
S11304F09946F0BD00600041064B4021C42299504A
S11305000131083A9950044AD3693D390B43D36108
S11305107047C046001C00400008004010B5044B62
S1130520984704490448054B9847054B984710BD24
S1130530F904000000080042F00A0020D509000078
S113054075040000F0B5C64600B5D04B4624185DCE
S11305500121884301221043C0B218553327D85DC6
S1130560373CA046A0431043C0B2D8553834185D78
S113057088431043C0B21855DE5D383C2640102035
S11305800643F6B2DE554627FF37DE5D8E4316433B
S1130590F6B2DE55133FDE5D26400643F6B2DE5565
S11305A01437DE5D8E431643F6B2DE553427FF372B
S11305B0DE5D4546AE431643F6B2DE554826FF36A9
S11305C0B4469E5D8E431643F6B265465E55DE5DC7
S11305D026400643F6B2DE55EB3FDE5D8E431643FE
S11305E0F6B2DE55143FDE5D4546AE431643F6B221
S11305F0DE553A355E5D8E431643F6B25E55DE5DDA
S113060026400643F6B2DE551637DE5D8E431643AA
S1130610F6B2DE55153FDE5D4546AE431643F6B2EF
S1130620DE553C355E5D8E431643F6B25E55DE5DA7
S113063026400643F6B2DE551437FF37DE5D8E439F
S11306401643F6B2DE55143FDE5D4546AE4316430F
S1130650F6B2DE554A25FF355E5D8E431643F6B28B
S11306605E55DE5D26400643F6B2DE551637DE5D86
S11306708E431643F6B2DE553627FF37DE5D454618
S1130680AE431643F6B2DE554C25FF355E5D8E4310
S11306901643F6B25E55DE5D26400643F6B2DE55DD
S11306A01737DE5D8E431643F6B2DE55163FDE5D28
S11306B04546AE431643F6B2DE554E25FF355E5D24
S11306C08E431643F6B25E55DE5D26400643F6B20F
S11306D0DE556B3FDE5D8E431643F6B2DE55163FA4
S11306E0DE5D26400643F6B2DE551737DE5D8E43E7
S11306F01643F6B2DE55163FDE5D4546AE4316435D
S1130700F6B2DE55BE355E5D8E431643F6B25E55D7
S1130710DE5D26400643F6B2DE551837DE5D8E43B5
S11307201643F6B2DE55173FDE5D4546AE4316432B
S1130730F6B2DE55C0355E5D8E431643F6B25E55A5
S1130740DE5D26400643F6B2DE559737DE5D8E4306
S11307501643F6B2DE553827FF37DE5D4546AE4315
S11307601643F6B2DE555025FF355E5D8E431643C3
S1130770F6B25E55DE5D26400643F6B2DE55E93F2D
S1130780DE5D8E431643F6B2DE55173FDE5D454609
S1130790AE431643F6B2DE5540355E5D8E431643D6
S11307A0F6B25E55DE5D26400643F6B2DE551A37D4
S11307B0FF37DE5D8E431643F6B2DE55183FDE5D2D
S11307C04546AE431643F6B2DE555225FF355E5D0F
S11307D08E431643F6B25E55DE5D26400643F6B2FE
S11307E0DE551A37DE5D8E431643F6B2DE553A27E0
S11307F0FF37DE5D4546AE431643F6B2DE5554255B
S1130800FF355E5D8E431643F6B25E55DE5D2640CF
S11308100643F6B2DE551B37DE5D8E431643F6B251
S1130820DE559D2676009F5D4546AF433D0015434A
S1130830EDB29D555627FF37DD5D8D432A43D2B275
S1130840DA559A5D14402043C0B29855D0229B5C7F
S11308508B43190001242143C9B20C4B9954B8208D
S1130860195CC13A91432143C9B21954D1215A5C4C
S11308700125AA432243D2B25A541A5CC2390A400F
S113088001310A431A5404BC9046F0BD0060004193
S113089010B50649CA6980231B021343CB6104487F
S11308A0044B9847044B984710BDC046003C004297
S11308B0E00A0020F10A00004505000010B51A4BBB
S11308C09847C023DB0508228A2149005A500C3975
S11308D05A50164B2132FF3215499950C02109064E
S11308E099504421FF315A5C012082435A54114CDF
S11308F0626980239B00134363610F4B9847020096
S11309000E490F480F4B98470F4B98470F4B98478A
S11309100F4B98474121EC230E4AD150E2698023C2
S1130920DB011343E36110BDCD1000000060004102
S11309300800004000080040BF12000000240040EE
S1130940C40A0020990D0000490400001D050000A0
S113095091080000001C0040EFF31083036072B69E
S1130960BFF35F8F7047BFF35F8F036883F3108813
S11309707047000010B584B0140001AB1438828BAA
S11309801A800294054A5A8003911900044B98472F
S1130990002800D1200004B010BDC0460080FFFF35
S11309A0BD15000010B584B0140001AB1438828B5F
S11309B01A800294054A5A8003911900044B9847FF
S11309C0002800D1200004B010BDC0460180FFFF04
S11309D0BD15000070B504000D00431E9841C0B25F
S11309E05E220749074B984729002000064B984789
S11309F0002803D1054BA361054B636170BDC0465C
S1130A00CC9C00002110000009150000A50900007D
S1130A107509000010B5014B984710BD3915000049
S1130A208905890D8023DB001A400A438283100064
S1130A307047000070B586B0040016001D006B46B8
S1130A40D971073303A9828B0A8001224A600022EC
S1130A504A808B60074B9847002801D006B070BDD0
S1130A6003A9054B4B808E604D602000014B9847D5
S1130A70F4E7C046BD1500000180FFFF10B5014B2F
S1130A80984710BDBD15000070B506000C00150098
S1130A9000280DD00800431E9841C0B234220549F5
S1130AA0054B984733682A0021003000984770BDF1
S1130AB00020F3E7E89C00002110000070B5060058
S1130AC00C00150000280DD00800431E9841C0B248
S1130AD03D220549054B984773682A0021003000E0
S1130AE0984770BD0020F3E7E89C00002110000047
S1130AF070B504000D0000280CD00800431E984176
S1130B00C0B22B220449054B984729002000044B0E
S1130B10984770BD0020F4E7FC9C00002110000001
S1130B20691B000010B50400431E9841C0B23E2268
S1130B300349044B98472000034B984710BDC04617
S1130B40FC9C0000211000000D1C000070B5040086
S1130B500D00431E9841C0B24F220449044B9847EC
S1130B6029002000034B984770BDC046FC9C000040
S1130B7021100000251C000070B504000E001500B3
S1130B8000280DD01000431E9841C0B25F220549D1
S1130B90054B98472A0031002000044B984770BD4C
S1130BA00020F3E7FC9C0000211000003D1C000025
S1130BB070B504000D001600431E9841C0B26822AF
S1130BC00449054B9847320029002000034B9847FD
S1130BD070BDC046FC9C0000211000007D1D00007B
S1130BE0F0B5CE4600B582B001900F0016001D008E
S1130BF0002808D0002A15D1732213490020134B72
S1130C00984700200AE073220F4900200F4B9847B1
S1130C100020002E0BD101E00D20404202B004BCA4
S1130C209146F0BD732208490120084B98470024DF
S1130C30074B99462A19395D0198C8470028EBD11A
S1130C400134A642F6D8E9E7FC9C0000211000001C
S1130C507D1D0000F8B504000D0016001F000028DB
S1130C6012D0002912D00020002A02D01800431EFE
S1130C70984182220649074B98473B0032002900DD
S1130C802000054CA047F8BD0020F2E70020F0E763
S1130C90FC9C000021100000011F0000F8B5CE46A6
S1130CA0474680B5814603689C46002B05D08E6874
S1130CB01C0000250127BF1A0DE0124B984718E0CD
S1130CC0FB18A06880464344B3420CD22368250035
S1130CD0002B0BD01C0063689342F1D8A0688046B7
S1130CE043449B1AF0E7A44507D02C002000064B90
S1130CF098470CBC90469946F8BD4846014B984726
S1130D00F7E7C0464D10000079100000F0B5C64664
S1130D1000B582B007004469036901339846036152
S1130D20037EDB0711D4037E9B070ED4002C10D066
S1130D30434662689B1AA26893420AD314239C46D2
S1130D40844463460193124E14E03B7E0222134313
S1130D503B7602B004BC9046F0BD7D69E368200098
S1130D609847002DF5D02C0043466A689B1AAA6860
S1130D709342EED30198B047237C012BEDD1434637
S1130D806360424621000198024B9847E5E7C0465C
S1130D90811000009D0C000070B505000C000028B7
S1130DA011D00800431E9841C0B23B220749084BAA
S1130DB0984721002800074B984700232B61064BD6
S1130DC02B60002070BD0020EFE7C046189D000096
S1130DD021100000DD1100000D0D000010B504000D
S1130DE0431E9841C0B253220749084B984720003C
S1130DF0074B9847002804D12000064B9847002051
S1130E0010BD11204042FBE7189D00002110000096
S1130E10A51200004912000070B582B004000D0054
S1130E20002824D00800431E9841C0B27A221E49EB
S1130E301E4B9847237E0122134323762600143643
S1130E40290030001A4B9847002812D123696B609F
S1130E50226929003000174B9847237E01229343CF
S1130E602376237E00209B070FD402B070BD0020A0
S1130E70DCE7237E0122934323767E320A49002055
S1130E800A4B984712204042EFE701A80A4B9847C3
S1130E90237E0222934323762000084B984701A81F
S1130EA0074B98470020E0E7189D00002110000040
S1130EB0291000009D0C000059090000BD1200001B
S1130EC067090000F8B5CE46474680B504000F0018
S1130ED09046002826D0002926D01000431E9841B1
S1130EE0F1221249124B98470834124D2000A847AA
S1130EF00028FBD00026104B99460E4DB95D20000A
S1130F00C8472000A8470028FBD001364645F5D342
S1130F100A4D2000A8470028FBD030000CBC9046A6
S1130F209946F8BD0020DBE70020D9E7309D00009A
S1130F3021100000E9140000D9140000F31400008B
S1130F40F8B5CE46474680B504000F009046002809
S1130F501DD000291DD01000431E98418622520046
S1130F600D490E4B9847002608340D4D0D4B9946FC
S1130F702000A8470028FBD02000C847B8550136F8
S1130F804645F5D330000CBC90469946F8BD002088
S1130F90E4E70020E2E7C046309D00002110000095
S1130FA0FD140000E114000070B505000C000028D9
S1130FB013D00800431E9841C0B234220849094B9B
S1130FC09847280008302100074B9847002803D190
S1130FD0064B6B60064B2B6070BD0020EDE7C046EE
S1130FE0309D00002110000099140000410F000002
S1130FF0C50E000010B50400431E9841C0B2532230
S11310000449054B984720000830044B98470020BA
S113101010BDC046309D000021100000C514000022
S1131020002800D100BE70470368002B0AD08B4211
S11310300AD01B68002B03D09942FAD1012000E0AA
S1131040002070470020FCE70120FAE770B5040097
S11310500D00064B984701235840C0B23922044979
S1131060044B984723682B60256070BD291000004D
S11310704C9D00002110000003680B600160704764
S11310800368002B01D01A68026018007047000042
S11310900300064A1268002A04D0044A1068C318E0
S11310A0136070470249014A1160F6E7440A0020C0
S11310B0B82B002001204042704780239B014B60E5
S11310C000207047012070470020704710B50A4A7D
S11310D0536804210B4353600220084B9847084B84
S11310E09847084B9847084B9847084B98471F2048
S11310F0074B984710BDC04600400041B1110000A5
S11311005D110000751100004D110000AD110000CB
S113111015110000C30707D5094A0A4B1A621900C2
S11311207D224B681A42FCD1830707D5064A054B3A
S11311305A6219007D224B681A42FCD17047C0469E
S113114005010100001C004005010400024B0822B7
S11311509A71073A1A71704700080040044BDA6923
S1131160F82149010A40DA6101221A747047C04625
S1131170001400408E220C4B1A75180038218C3A4A
S1131180435C1342FCD108491022CB681A42FCD0BC
S1131190054A137D80210B431375100048390E2234
S11311A0435C1342FCD170470010004070470000BC
S11311B0094B9B780322134098420BD0064AFF2325
S11311C09371937803218B4308401843907093796B
S11311D0002BFCD07047C0460004004070B50500E9
S11311E00C00431E9841C0B230221249124B98475A
S11311F0EC6001232380114A23691342FCD1EB687C
S113120001211A691142FCD10D4A1A800B491A694D
S11312100A42FCD1EA68202313622021136919428F
S1131220FCD180235B00EA685381064B1D600020DB
S113123070BDC0466C9D00002110000003800000BA
S11312408080FFFF480A002010B5041E1FD0C0682C
S1131250431E9841C0B25C220E490F4B98470422AA
S11312600E4B1A60E2680023936108211369194246
S1131270FCD1E36808211A691142FCD11A880221C1
S11312800A431A8006491A690A42FCD110BD00209B
S1131290E1E7C0466C9D00002110000000E100E081
S11312A003800000C268044913690B42FCD1108812
S11312B08007C00F7047C0460380000070470020BD
S11312C07047000010B5084B1C68E3689B89DB0578
S11312D008D52368002B01D020009847E3688022BA
S11312E052009A8110BDC046480A002010B5094B2F
S11312F09C466044800AC0B2012808D0E6229200CD
S113130005490020054B98470120404210BD0020AC
S1131310FCE7C04600FCFFBD9C9D000021100000BE
S113132070B505000C000800314B9847C0B2E36962
S1131330DB0721D443001B18DB002E4AD31859685D
S11313401C2319400322E3691A42FCD123689B073A
S11313500BD523680222934323600132E3691A42C6
S1131360FCD10222E3691A42FCD101230B4323601E
S11313700322E3691A42FCD10122E3691A42FCD137
S113138043001B18DB001B4AD31859682160032251
S1131390E3691A42FCD143001B18DB00154AD31839
S11313A09B6863600422E3691A42FCD143001B1862
S11313B0DB00104AD318DB68E3608901890FA98137
S11313C0636A0D4E1E4001238B429B415B429B038B
S11313D0334363620422E3691A42FCD143001818C0
S11313E0C000044B1818438AEB81002070BDC0462E
S11313F0ED120000849D0000FFBFFFFF10B5040044
S11314001F4BC3189B0ADBB2002B04D01D4A1E4994
S113141000201E4B9847E369DB0718D40322E369D5
S11314201A42FCD123689B070BD5236802229343FD
S113143023600132E3691A42FCD10222E3691A42B1
S1131440FCD1052323600322E3691A42FCD1012263
S1131450E3691A42FCD10E4B23600322E3691A426A
S1131460FCD1C0239B0263600722E3691A42FCD1CA
S1131470084BA3810023A3733022A354002010BD82
S113148000FCFFBD3A0200009C9D000021100000FA
S11314900400314082E2FFFF70B505000C00431EDA
S11314A09841C0B2B4220449044B98472C602000F0
S11314B0034B984770BDC0469C9D0000211000005E
S11314C0FD1300000268136802210B43136001310D
S11314D0D3691942FCD17047036889B219857047F2
S11314E00368188DC0B270470368187E0123184042
S11314F070470368187E8007C00F70470368187E22
S11315004007C00F7047000070B504000D00431E73
S11315109841C0B2044A0549054B98472561290002
S11315202000044B984770BD070500009C9D0000F7
S1131530211000002113000070B504001A4D431E51
S11315409841C0B2194A2900194EB04724692000B5
S1131550431E9841C0B2174A2900B04723680222AB
S1131560134323600132E3691A42FCD104250422A7
S1131570032010261049E3691A42FCD1638B1B092E
S11315800340012B0AD001390029F4D1013D002D7B
S113159006D06683E3691A42FCD1EBE7002070BDF4
S11315A006204042FBE7C0469C9D00002405000045
S11315B021100000F4050000FFFF0000F0B5DE4636
S11315C057464E464546E0B583B005008846046953
S11315D00600731E9E41F3B20193B44FB44A39001E
S11315E01800B44EB0472869431E9841C0B2B822CF
S11315F0D2003900B0474046431E9841C0B2AE4ABB
S11316003900B0476B88DB0500D524E243465A888D
S113161080235B001A4341464A802A00C1C9C1C2E3
S11316206268134363600422E3691A42FCD12F69A0
S11316303B689946A14A9D4901989E4B98476B681F
S1131640012B5AD07B689E4A13407B600422FB69BD
S11316501A42FCD12B885A055CD56A88D20704D576
S11316606A888021C9000A436A805B009549194051
S11316700422FB691A42FCD17B6A8022D2011A40FF
S113168080231B021343194379620422FB691A4223
S1131690FCD129690B7EDBB28B4A0320184204D1AA
S11316A00B7EDBB2013A002AF8D13E680421FA69C4
S11316B01142FCD17A8B92B2D90700D4A0E09307EF
S11316C03ED501233B766B88802149010B436B8017
S11316D06B887E490B406B80012003001340584205
S11316E0584105386B88794A13406B8003B03CBC81
S11316F090469946A246AB46F0BD4B461B01A1D588
S11317007A688023DB0213437B600422FB691A425C
S1131710FCD19FE76A885B00FF210B40FE39114032
S113172019430422FB691A42FCD17B6A8022D2014C
S113173013400B437B620422FB691A42FCD1A8E7E5
S113174053071BD46B885B0535D52B88DB09062131
S113175019400422FB691A42FCD17B6A8022D2011F
S11317601340F12213430B437B62ED3AFB691A42A7
S1131770FCD16B88564A13406B8066E06B68002B83
S113178004DD6B888022520113436B806B881BB28B
S1131790002B06DB6B884D4A13406B8002204042CD
S11317A0A0E77A68C0239B0213437B600423FA6991
S11317B01342FCD1EEE76B68002B12D16B881BB28D
S11317C0002B04DB6B88414A13406B803DE07A6850
S11317D0C0239B0213437B600422FB691A42FCD1A1
S11317E0F0E7AB681A782823FA540422FB691A42FA
S11317F0FCD1AB680133AB606B68013B6B6024E0E8
S11318009B0722D56B68002B40D052073ED436018B
S1131810F60F013B6B60002B00D01FE1002E00D1BE
S113182022E16B881BB2002B1DDB6B88274A134017
S11318306B80A9684B1CAB600422FB691A42FCD183
S11318402823FB5C0B7002233B76002680235B007D
S11318509A4603210422FF3B9C46013399462633D2
S11318609B460196C2E07B68184A13407B600632AF
S1131870FF32FB691A42FCD17A68C0239B021343EE
S11318807B600422FB691A42FCD1CEE702233B763B
S11318900220404226E76268C0239B021343636030
S11318A00422E3691A42FCD1B5E0C0469C9D0000C5
S11318B0BF05000021100000C105000094050000D0
S11318C0FFFFFBFFFE070000FFFF0000FFFEFFFF1E
S11318D0FFFBFFFF02421BD16B885B0535D52B88CC
S11318E0DB0906201840E3691A42FCD1636A8026AA
S11318F0F6013340F126334303436362E3691A423A
S1131900FCD16B88784803406B80002301936DE021
S11319106B68002B04DD6B888020400103436B80DF
S11319206B881BB2002B07DB6B88704803406B800D
S113193002235B42019359E06068C0239B02034386
S11319406360E3691A42FCD1EEE76B68002B13D1A4
S11319506B881BB2002B06DB6B88644803406B80EA
S11319600023019342E06068C0239B020343636049
S1131970E3691A42FCD1EFE7AB681B78584623545D
S1131980E3691A42FCD1AB680133AB606B68013B7D
S11319906B600023019329E0002601964E461E4207
S11319A024D06B68002B4DD002424BD1FF0E604611
S11319B00740013B6B60002B00D082E0002F00D178
S11319C085E06B881BB2002B2CDB6B8847480340F7
S11319D06B80A868431CAB60E3691A42FCD15B4688
S11319E0E35C03704B462376002301936B885046D7
S11319F003422DD02E69337EDBB23D48194241D1DA
S1131A00337EDBB201380028F8D143465B881BB231
S1131A10002B00DA3FE76B88344A13406B800520C3
S1131A20404263E66368314803406360E3691A42F5
S1131A30FCD16068C0239B0203436360E3691A42DC
S1131A40FCD1C2E74B46237602235B420193CDE7E8
S1131A50019E30004AE60620404247E6012B00D0B2
S1131A60E7E6002E00D1E4E67A688023DB02134324
S1131A707B600422FB691A42FCD16B68002B00D105
S1131A80CFE6D6E62768E0690242FCD1608B80B2DB
S1131A9066461E4200D17FE74B46034200D119E758
S1131AA026766B888026760133436B806B880F4ED5
S1131AB033406B806346184046424641731F01938E
S1131AC094E7012B00D084E7002F00D181E7606800
S1131AD08023DB0203436360E3691A42FCD16B6831
S1131AE0002B00D16DE774E7FFFBFFFFFFFEFFFF54
S1131AF0FFFF000010B51402240E042C2DD8FF247F
S1131B001440172C2CD8002B12D05409036824330A
S1131B10490009198900591808681F2A05D80123A2
S1131B20934003430B60002010BD0123A340F8E75A
S1131B3054090368243349000919890059180868AD
S1131B401F2A06D801239340DB4303400B60002087
S1131B50EAE70122A240D343F7E70D204042E3E73E
S1131B600D204042E0E700004B69DB0718D4032254
S1131B704B691A42FCD10B689B070BD50B680222F8
S1131B8093430B6001324B691A42FCD102224B6928
S1131B901A42FCD101230B6003224B691A42FCD187
S1131BA001224B691A42FCD10160164B0B600322DF
S1131BB04B691A42FCD181238B80013BCB800B7291
S1131BC007224B691A42FCD10F4BCB61FF231B0147
S1131BD00B6200234B628B62CB620B634B638B63A0
S1131BE0CB630B644B648B64CB640B654B658B6577
S1131BF0CB650B660268936E01210B43936600204C
S1131C007047C04614300300C0FFFFCF026813685A
S1131C1002210B431360013153691942FCD10020A6
S1131C207047000010B5FF231A000A40090C194040
S1131C30FE3B014CA04710BDF51A0000F0B5C646A6
S1131C4000B504000D022D0E042D00D987E0FF26F7
S1131C500E40012E00D985E0454913000F3B8B420D
S1131C6000D982E001680B7A102083430B720727A6
S1131C704B691F42FCD1276804217B691942FCD1BE
S1131C80F0235B009A4253D8387EC3B298460F21A2
S1131C901000384B9847431E802040424246104370
S1131CA00343DBB23B762268137A10210B43137291
S1131CB0093953691942FCD101233200290020005B
S1131CC02D4FB8472268137A02218B4313720531D2
S1131CD053691942FCD12268136802218B431360B3
S1131CE0013153691942FCD1226802215369194216
S1131CF0FCD1002E29D1916E80235B04AB401B0CD8
S1131D000B4393662268136802210B43136001316D
S1131D1053691942FCD12268137A02210B431372CE
S1131D20053153691942FCD1002004BC9046F0BD32
S1131D303B7EDBB29846782110000E4B9847013861
S1131D4043461843C0B23876ADE7916E80235B02F8
S1131D50AB40FF20000403400B439366D2E70D2001
S1131D604042E2E70D204042DFE70D204042DCE73D
S1131D70F10E000045290000F51A0000F0B5D64622
S1131D804F464646C0B594003C4B1B19DD78072DE1
S1131D9004D00E2D1AD00D20404260E000290DD051
S1131DA00123374F30269C003C19A45D8C4206D099
S1131DB00133112BF7D10D20404250E000239B004A
S1131DC02F49CB181C6B230A9C4616E030290DD0F2
S1131DD001232B4F74269C003C19A45D8C4206D031
S1131DE00133332BF7D10D20404238E000239B0010
S1131DF02349CB185C6F230A9C46702403681B5D3F
S1131E000726B3431D498A4692008F18BE78B1460F
S1131E10072649460E40334301680B55046884265F
S1131E20A35B18490B405146525C1202E021C900E1
S1131E300A401343A3530268935B3F218B437F788B
S1131E4039400B439353072D0ED00E2D11D0026849
S1131E500821137C0B42FCD16346D36700201CBCD1
S1131E6090469946A246F0BD074A80230168CA50AD
S1131E70EDE7064A80230168CA50E8E7B89D0000F0
S1131E80389E0000FFF8FFFF80FFFF0000C0FF0046
S1131E9070B5050008002A68137A20218B43137259
S1131EA0193953691942FCD12C68042263691A4216
S1131EB0FCD1F0235B00984216D8667EF6B20F215F
S1131EC00E4B98470138064380235B423343DBB211
S1131ED063762A68137A20210B43137219395369E4
S1131EE01942FCD1002070BD667EF6B27821034B06
S1131EF0984701380643F6B26676EAE745290000BA
S1131F00F8B5CE46474680B505000E001400102AE9
S1131F1000D98EE0002A12D00A78023A012A00D9A8
S1131F208AE0081DA1007118FF27884207D004C861
S1131F303A40023A012AF8D90D20404275E041495D
S1131F401A000F3A8A4200D979E0190028003E4B62
S1131F5098472A68136802218B431360013153693F
S1131F601942FCD12A68137A04218B43137203317A
S1131F7053691942FCD12A68062153691942FCD1DC
S1131F80D36E02210B43D3662A68D36E2F490B40CC
S1131F90D366002C29D03000A40031190024FF2678
S1131FA001239C462A4B984602E0043088421CD008
S1131FB02F680268FB6E9946130C33405B00324075
S1131FC0023A9A18634693401B02424613404A461B
S1131FD01343FB660268130C33405B003240023A41
S1131FE09B189C42E1D21C00DFE72A68D16E0134C1
S1131FF02401FF231C400C43D4662A68936E0121FC
S11320000B4393662A68137A03310B43137203312B
S113201053691942FCD12A68136802210B431360E7
S1132020013153691942FCD100200CBC90469946F9
S1132030F8BD0D204042F8E70D204042F5E70D20A1
S11320404042F2E7F10E0000911E0000FF0000FF85
S113205000FFFF00F0B5D6464F464646C0B590B0E7
S11320607A4B98477A4C20007A4B9847C0218902D2
S11320702000794DA8478021C9022000A847A0214B
S1132080C9022000A847C021C9022000A847E021B6
S1132090C9022000A84715212000A84714212000C8
S11320A0A84713212000A84716212000A8470E2185
S11320B02000A8470D212000A8470F212000A84791
S11320C017212000A84710212000A8471121200033
S11320D0A84712212000A847FA25AD002A00802134
S11320E0490220005D4EB0472A0080218902200069
S11320F0B0472A0000212000B04704A9584B0A0029
S1132100C1CBC1C2C1CBC1C241CB41C22B00082249
S11321102000544DA847002230212000524DA847EA
S1132120012231212000A847022303224F49200025
S11321304F4DA847052308224E492000A847802375
S11321401B0153224C490CA84C4CA04701004C489D
S11321504C4CA0470CA90FA84B4B984701004B4887
S1132160A0470FA84A4B984701004A48A0470B21B3
S11321700FA8494B984701004848A04741210FA8A0
S1132180474B984701004748A0470FA8464B98473C
S113219001004648A047464B00221A705A600022AC
S11321A09A60444E1D0020E0013B002B03D0002A1E
S11321B0FADC0A00F8E70130A04203D080235B0078
S11321C00100F4E708218A235B00C022D205D15024
S11321D0374B5F681C789868374B9847009001919B
S11321E03A0021003548274B98470F246C442100BE
S11321F00FA8B04722781F2313402A789A4201D2AD
S11322002B4A13701C1E15DD002398462C4B9A464E
S1132210274F2C4B994604A90FA8D0477B6801335C
S11322207B60B9680498C847B86001239C46E044C1
S11322304445F0DC08218C235B00C022D205D15038
S113224000200122524280246400B7E731030000D9
S1132250E00A0020250B00004D0B0000790B000064
S1132260789F0000550C0000B10B0000989F0000FF
S1132270E10B00009C9F0000F00A0020A502000072
S1132280A89F0000194800001D010000C49F000021
S1132290ED010000DC9F000045010000F49F0000F8
S11322A09501000018A00000BD0100003CA0000042
S11322B04C0A0020A90100003142000054A0000093
S11322C01D0200001D2C000010B50122024B5A70A3
S11322D01420024B984710BD580A00208D2400009A
S11322E010B5014B984710BDC922000010B508492C
S11322F01423CB60074B0B6101230B750431064C8F
S11323002000064B98472000054B984710BDC04657
S1132310580A0020E1220000C40A0020190E00001F
S1132320DD0D0000F8B5124B98471248124B984740
S11323301248134B984700240E4D124F124E2100A1
S11323402800B84721002800B0470134A4B2052C66
S1132350F5D10E4D0024074E0C360D4FE1B22A0084
S11323603000B8470134A4B20635052CF6D1F8BDC7
S1132370ED220000000000201D270000380B002083
S1132380E5270000F927000019280000180B002099
S11323909D24000010B5024B9847024B984710BD8E
S11323A0692800008D28000010B50B00002809D111
S11323B011001800054B9847002800DB10BD0120D0
S11323C04042FBE701204042F8E7C04625240000D4
S11323D010B50B000138022809D811001800054B6C
S11323E09847002800DB10BD01204042FBE7012094
S11323F04042F8E74924000070B50600064D2B68FA
S113240098680021054CA0472B6858680021A04714
S1132410034B1E6070BDC0467C0000203D48000098
S1132420700A002010B50400054B1868002804D079
S11324308AB22100034B984710BD0020FCE7C04638
S1132440700A0020BD0A000010B50400054B18688E
S1132450002804D08AB22100034B984710BD002005
S1132460FCE7C046700A0020890A000010B5044C3D
S11324702000044B98472000034B984710BDC046EA
S1132480E40A0020F50F0000F9230000024A138833
S1132490C01810807047C046740A002010B50B2382
S11324A000280BD0002A09D001330C005C4381685A
S11324B00B3B0B558368191900234A60180010BCA4
S11324C002BC084730B501244B08C0010B4A1B1855
S11324D09B18214204D00F221C782240102402E0D1
S11324E00F251A78AA4322431A700122044B0818B4
S11324F0C01803781343037030BDC04630600041F8
S113250040600041024A9389002BFCD17047C046C9
S113251000380042F0B5062401250C490C4A09682C
S113252013880868008883420BD226005E438F68B4
S1132530F65D2E4202D101339BB2F4E713800020F2
S113254002E0002301201380F0BDC046840B00206C
S1132550780A0020F0B5674F89B00390B84702228B
S11325600C25654C238893432380B847039B634E13
S11325705D433368616C5B685B195B681B021A0A14
S11325800B0E1B0613436364B84733685B685B59DF
S1132590E363B8470623039A316853438A68D21821
S11325A09288A264039702278A68D2181078384266
S11325B001D0052010708A68D75C039BFF067F0F4B
S11325C09847002F0AD133684D495B68A26C5B19A8
S11325D09B7A1B09CB181B7A1B0402E0FC22A36C18
S11325E092031343A364039B9847336821695B6890
S11325F0414F5B195A7A072312091A40414B1205BD
S11326000B4013432361039B9847032233682188BB
S11326105B685B195B7A1A403B4B12020B40134315
S11326202380039B9847072133685B685B19DA7A38
S113263023690A40354912040B4013432361039B69
S113264098473368A16C5B685D192B7A02251A06DA
S11326500B021B0A1343A364039B984723882B4351
S113266023802B4B5E68002E3BD00124BB6C1B0ED9
S113267004933B691B051B0F05933B889B059B0F2C
S11326800693039B98473B88AB433B80039B984747
S11326903B7923433B71039B98473B792B433B7125
S11326A0039B984708213B6907931A4B1A681378D0
S11326B00B431370039B98473B69144A13403B61D7
S11326C0079B069A059904980093134BB047039B04
S11326D098473B881D433D80039B98473B7F23439A
S11326E004E0039B984701223B7F13433B7709B0E7
S11326F0F0BDC0460525000000380042840B0020D0
S113270060A00000FFFF8FFFFFFCFFFFFFFFF8FF4B
S1132710780A0020800B002010380042F7B5010031
S11327200B20002953D00B680C24188800231D00AB
S11327301F009AB2904209D922005A434E680133CD
S1132740B2181668526837431543F2E70220002D89
S11327503DD0002401263B042B430193019BE3401D
S1132760334210D01A4B1B4A0E33E35C0020191E6F
S11327701F2907D92039C9B201201F2902D90220F3
S1132780403BD9B290470134202CE7D1124EB047D8
S11327900023124C2380124B1B7A0193002B0DD182
S11327A0B047019BA361A3691F43A761B047A36915
S11327B00B4A1D430123A561137207E0B047A369C7
S11327C01F43A761B047A3691D43A5610020FEBD57
S11327D060A00000C5240000052500000038004268
S11327E0780A00200B23002802D0024B1860002333
S11327F018007047880B00200B2300280AD00368B8
S11328001A8802238A4205D3043359438268053B5C
S11328108B54002318007047020010B50B20002AC7
S11328201FD0136809381C888C421AD39B7892688D
S1132830402B05D18D203A3B4B438000D31807E051
S1132840803BDBB2012B05D806234B430548D31844
S11328509880002006235943511802220B78134311
S11328600B7010BD670500000220074B9A7AD2B2A4
S1132870024202D0997A0143997201210A4202D09C
S11328809A7A0A439A72704700380042F8B5234B8B
S113289098470221224A13888B431380214B98477F
S11328A0214B224C224A19881888238812685B001D
S11328B0D052204B89B21B782000012B02D0022B6E
S11328C00FD029E02388013323801B4B984700282D
S11328D005D11A4B20889847042323721CE0E3682F
S11328E019E0174B24881D680C2363436A6800278A
S11328F0D3180F229E7A1640DA7A964201D2921B9E
S1132900D7B206221300F9406343AD68EB1859802F
S11329100223037203699847F8BDC04605250000E9
S1132920003800426928000058380042780A002024
S1132930880B00207A000020152500005525000092
S1132940840B0020002243088B4274D303098B427A
S11329505FD3030A8B4244D3030B8B4228D3030C6B
S11329608B420DD3FF22090212BA030C8B4202D30D
S11329701212090265D0030B8B4219D300E0090A35
S1132980C30B8B4201D3CB03C01A5241830B8B423E
S113299001D38B03C01A5241430B8B4201D34B0327
S11329A0C01A5241030B8B4201D30B03C01A52418C
S11329B0C30A8B4201D3CB02C01A5241830A8B4211
S11329C001D38B02C01A5241430A8B4201D34B02FA
S11329D0C01A5241030A8B4201D30B02C01A52415E
S11329E0CDD2C3098B4201D3CB01C01A5241830912
S11329F08B4201D38B01C01A524143098B4201D34C
S1132A004B01C01A524103098B4201D30B01C01A76
S1132A105241C3088B4201D3CB00C01A52418308F0
S1132A208B4201D38B00C01A524143088B4201D31D
S1132A304B00C01A5241411A00D20146524110467D
S1132A407047FFE701B5002000F006F802BDC0465C
S1132A500029F7D076E770477047C046002B11D1A4
S1132A60002A0FD1002900D1002802D00021C94337
S1132A70081C07B4024802A14018029003BDC046D6
S1132A80D9FFFFFF03B4684601B5029800F006F8C9
S1132A90019B9E4602B00CBC7047C046F0B5574639
S1132AA04E464546DE46E0B5040083B00D0092462E
S1132AB099468B422FD82CD04946504601F0F0FC61
S1132AC029000600200001F0EBFC331A9846203B55
S1132AD09B4600D574E053465A4693401F00534624
S1132AE0424693401E00AF4229D826D05B46A41B21
S1132AF0BD41002B00DA79E000220023009201930B
S1132B0001235A4693400193012342469340009384
S1132B1019E08242D0D900220023009201930C9B39
S1132B20002B01D01C605D600098019903B03CBC8F
S1132B3090469946A246AB46F0BDA342D6D90022A0
S1132B400023009201934346002BE8D0FB07720850
S1132B501A4346467B080EE0AB4201D1A2420CD890
S1132B60A41A9D41012024196D410021013E24181D
S1132B704D41002E06D0AB42EED9013E24196D41E1
S1132B80002EF8D15B460098019900196941002B89
S1132B9022DB2B005A46D3402A004446E2401C0064
S1132BA05B461500002B2CDB26009E4033002600DC
S1132BB04746BE403200801A994100900191AEE729
S1132BC0424620239B1A5246DA40414613004A46A5
S1132BD08A4017001F4382E7424620239B1A2A009B
S1132BE046469A402300F3401343D5E74246202348
S1132BF000219B1A0022009101920122DA400192E5
S1132C0082E74246202326009B1ADE402F00B4466A
S1132C10974066463B003343C9E7C046F0B5C64615
S1132C204E024702760A7B0A4400C50FF7004800AB
S1132C30984600B5240E2A00DB00000EC90FBC46DE
S1132C408D4267D0221A002A00DCA5E000283AD180
S1132C50002F00D193E0511E002900D0BCE00124D4
S1132C60DB1B5A0146D59B019E09300001F0FAFB9B
S1132C7005388640844200DD9DE0041B320020209C
S1132C800134E240041BA64033005E1EB34100241D
S1132C9013435A0704D00F221A40042A00D00433E5
S1132CA05A0129D50134FF2C00D181E02A009B016F
S1132CB05B0AE4B25B02E405580AD20720431043DE
S1132CC004BC9046F0BDFF2CE3D080213800C90439
S1132CD0084384461B2A00DD82E020206146D1405F
S1132CE0821A604690400200501E82410A439B1A99
S1132CF05A01B8D45A07CED1DE082A00FF2C3AD1A3
S1132D00002E00D1AEE08023DB0333435B025B0A79
S1132D10FF24CFE7211A002952DD002831D0FF2CEF
S1132D20B7D080203E00C0040643B4461B2900DD12
S1132D30AAE020266046C840711A66468E403100DB
S1132D404E1EB14101435B185901D3D50134FF2C08
S1132D5000D187E0012278491A405B080B401343F5
S1132D6097E7002C00D0A7E0002B00D0B6E03B1E74
S1132D7062D10026002273025B0AE4B29AE71400CF
S1132D8087E7002F4DD0481E002857D16344012403
S1132D905A01AFD50224DDE7002A24D1621CD2B245
S1132DA0012ADEDDDE1B720135D5FE1A0D005CE75B
S1132DB02A0000237EE73300604A241A134068E7A0
S1132DC0002963D1611CC8B201284EDDFF2949D016
S1132DD063445B080C005CE7FF2A41D00A0079E7F2
S1132DE001229B1A84E7002C1DD0FF2822D08024C6
S1132DF0E404524223431B2A00DD8AE01C00202500
S1132E00D440AA1A93405A1E9341234362460400B5
S1132E10D31A0D0025E7002E00D026E70022002457
S1132E20A9E70C0035E7002B4DD0D243002AEDD0A2
S1132E30FF28E0D16346FF240D002AE7FF290FD0C5
S1132E40010073E7002B61D0FF24002F00D120E79D
S1132E5080224146D203114202D0164200D13B00E7
S1132E60FF2416E7FF24002324E7002CEAD1002BDB
S1132E7058D0002F00D10CE763445A0100D439E73D
S1132E802E4A0C00134004E701215CE7002C1ED1FC
S1132E90002B40D0C94300290BD0FF2836D01B2972
S1132EA047DC1C002026CC40711A8B40591E8B41F4
S1132EB023436344040047E7002B18D13B1E2DD065
S1132EC00D00FF24E5E63B0004000D00E1E6FF28C9
S1132ED01CD08024E40449422343E0E7002F00D1BE
S1132EE0D7E6DE1B72011FD5FB1A0D00D1E6FF24C5
S1132EF0002F00D1CDE680224046D2031042AFD04D
S1132F001642ADD13B000D00FF24C2E66346FF2408
S1132F10BFE601237AE73B000400BAE680260022DC
S1132F20F603F0E63B00B4E6331E00D0E2E60022EE
S1132F3021E70123BDE7C046FFFFFF7DFFFFFFFB45
S1132F40F0B557464546DE464E46E0B54C000E0306
S1132F5087B0834692461D008046360B640DCF0F22
S1132F60002C4FD06F4B9C4235D08023420F1B0462
S1132F70F600134333439946C30098466A4B002630
S1132F809C460023644403932B031B0B9B466B005A
S1132F90ED0F50465B0D01955ED0624A934253D0CB
S1132FA05A46D1008022400F120402430A4393463A
S1132FB05246D1005C4A944600226344380068407B
S1132FC084460290E41A16430F2E00D9B4E0574BFE
S1132FD0B6009B599F460300334399466CD10023A6
S1132FE09846023308260393CEE7CB464146039A1C
S1132FF00197022A65D1019B4A4C9C46002300227A
S113300098466BE00300334399464ED0002E00D11E
S1133010BCE1300001F026FA03000B3B1C2B00DD61
S1133020ACE11D22D31A5A460100DA4008398E4019
S11330301300334399465B468B40984600233C4C2F
S11330400026241A03939FE751465A46114329D177
S1133050002293460232B1E7594601431ED05B4633
S1133060002B00D19EE1584601F0FCF903000B3B14
S11330701C2B00DD8FE102005946083A91408B4633
S11330801D21CB1A5146D9400B0059460B435146DA
S11330909B469140264B00221B1A8FE700230122F6
S11330A09B468BE75146032288E700239846013369
S11330B004260024039367E70323B14603930C26F5
S11330C062E7032A00D15CE2019B012A00D0E4E11B
S11330D013409C460023002400229846002112033A
S11330E0130B0A0D12051A432305124C40462240C5
S11330F0134362465B00D2075B081343190007B011
S11331003CBC90469946A246AB46F0BD00238022C3
S11331109C4612039846034CE0E70023014C00222E
S11331209846DBE7FF07000001FCFFFF90A00000CA
S11331300DFCFFFFFFFF0F80D94500D939E100D115
S113314034E1002346464D469A46013C5B460A0E4E
S11331501B021A430B02170C039313041B0C3900B4
S1133160280090460193FFF7EDFB0200019B834684
S11331705A43280039009146FFF76AFC350C0904CC
S11331800D43A9450DD95B464544013BA84500D9EB
S11331903AE1A94500D837E102235B429C46454405
S11331A0E3444B46EB1A390018000493FFF7CAFBBB
S11331B0019B05004343390004989946FFF748FCF6
S11331C0330409041B0C0B43994509D943446A1E73
S11331D0984500D91AE1994500D817E1023D4344C6
S11331E04A469B1A5A4612042A4303999346100CE2
S11331F00A0C914609045A46090C4E460D00120465
S1133200120C4543059151437243704352190E0CFD
S1133210B218954203D980256D02AC466044150C62
S113322009041204090C28185218834200D2CEE073
S113323000D1C8E01D1A53469E1AB245924152422B
S1133240AB1A9A46984500D117E139001800FFF7E8
S113325079FB019B05004343390050460493FFF773
S1133260F7FB04980B04310C1943884209D94144F3
S11332706B1E884500D907E1884200D804E1023D6D
S11332804144049BCB1A180039000493FFF75AFBFE
S1133290019B82464343390004980193FFF7D8FB0E
S11332A001980B043104090C194388420DD9534683
S11332B04144013B884500D9E8E0884200D8E5E074
S11332C002235B429C464144E244019B2D04CE1AF6
S11332D051462943059D4F462A000B04080C1B0C3C
S11332E05A4345437B4378435B19170CFB189D42B3
S11332F003D980256D02AC4660441D0C12041B04E6
S1133300120C28189B18864200D293E000D18EE05C
S113331001231943A04BE318002B00DC99E04A0772
S113332000D09EE05A46D20106D55A469B4B1A401D
S113333080239346DB00E318994A934268DD012316
S1133340029A984C1A400023944698460022C5E6F7
S113335080224B46120313420AD05B46134206D125
S11333601A431203120BAC4688468E4CB6E64B4603
S11333701A431203120BBC468A4CAFE603005A46AA
S1133380283B9A4000239146984657E6584601F058
S113339069F8203040E603005246283B9A40002159
S11333A0934677E601F05EF820305FE6884500D268
S11333B0C7E64B46DE075D0843465B081E434346AB
S11333C0DB079A46C2E60025924500D333E7039E05
S11333D05946B446E244B245AD416D424544EB180A
S11333E00139984507D2984200D97FE000D1BCE06A
S11333F01D1A8B461FE79845FAD1039D5545F2D90E
S113340043468B461D1A16E79B46CAE61500E7E6B7
S11334105A46C90852070A435B0590465C0D5A4652
S11334200123029952021940120B8C4656E6002BD6
S113343000D16FE746444A1EB04529D9110086429F
S113344000D065E7039A934200D061E762E7012167
S113345049420120C21A382A21DD029B03409C46BE
S113346038E60F220A40042A00D15BE70A00111D46
S1133470914292415242934454E7474BE318002B44
S1133480E5DD01225242F2E71D00FAE69A461CE706
S1133490B04239D86ED011003AE702933AE71F2AB6
S11334A03CDC20239B1A0C005846994098404B1E44
S11334B099415B46D440D340204308431A00430754
S11334C009D00F230340042B05D00100081D8842B6
S11334D09B415B42D21813023AD50123029A01247C
S11334E01A400023944698460022F7E502214942F7
S11334F08C46039DE344AC46E244AA45AD416D428B
S11335004544ED182D1A96E68A1E03994D008D4206
S1133510894149424144761803958FE71F20404270
S1133520C31A5846D8400300202A28D040205D46BC
S1133530821A954029434A1E9141194307230022C8
S11335400B4009D00F2300220B400800042BBDD1EF
S1133550010053075202120BC9081943012388467C
S11335600299002419408C46B8E55245BED88B46D2
S1133570002560E6039D9D42C6D3110062E7002545
S1133580D8E780225B4612031A43019B1203120BF5
S11335909C468846034CA1E5FF030000FFFFFFFEA5
S11335A0FE070000FF070000F0B557464546DE461B
S11335B04E46E0B50C0398464E00230B87B0070037
S11335C092469B46760DCD0F002E6BD06D4B9E42DE
S11335D035D080245B46420F2404DB0014431C4393
S11335E0C3009946684BA3469C46002300276644C3
S11335F0029343461C035A00DB0F5046240B520D22
S1133600984600D176E05F4B9A426DD08023410FFB
S11336101B040B435C49E4008C461C43C30000209C
S113362062444146B6186940721C019194460743AE
S11336300F2F00D9B0E0554ABF00D25997465B46D8
S11336400343994600D087E000239B4602330827B2
S11336500293CEE742460192022867D0032800D1A4
S11336600EE2012800D062E10023002400229946E2
S113367001990140CDB2002112030B0D120B1B0561
S11336801343434A240513401C436400ED076408B4
S11336902C434846210007B03CBC90469946A246BC
S11336A0AB46F0BD034399464FD05B46002B00D197
S11336B089E1584600F0D6FE03000B3B1C2B00DDCD
S11336C07AE11D22D31A3A0001005C46DA40083937
S11336D08C4013008F4023439B46B94600232D4E54
S11336E00027361A029384E7534623432AD1002441
S11336F0022096E75346234320D0002C00D157E103
S1133700200000F0AFFE03000B3B1C2B00DD49E161
S11337101D21CB1A51460200D9405346083A944021
S113372093400C431B4A121A00207AE70125019B9F
S1133730144C1D400023002299469CE700240022DB
S113374001206EE7534603206BE700239B460133B9
S11337500427002602934CE7032381460C27029397
S113376047E780220023002512039946054C82E78F
S11337705C464B4602986FE75C464B4601950298BF
S11337806AE7C046FF07000001FCFFFFD0A000006D
S1133790FFFF0F800DFCFFFF4A464946170C1A0C29
S11337A01B041B0C08041900000C41431500884637
S11337B019007D4379430395894629001500454343
S11337C04D44029545462D0CAA46029D5544A945F3
S11337D006D98A46802149028946CA445146039142
S11337E0290C0491414609042D04090C884629003A
S11337F0250C24044144240C0591210041438846AE
S1133800210079438A466843414650448146080C66
S113381048446F43824503D98021490289464F4475
S1133820010C894639004944029141460F04049928
S11338303F0C88460004C01980444146049159460F
S11338400F0C0904090C884659438A463900514330
S1133850894641464A435146090C8B467B43D2185C
S11338605A44934203D980235B029B46D944514670
S11338700904090C8A46414661437C43130C120433
S11338804B445244A1468A463C0041466C434D4356
S113389051464D440F0C7D19A94503D98021490295
S11338A088464444049F0399B84641448B46834563
S11338B0804141428846514608042F04000C3F18B9
S11338C05846029910188946904292414F44BA468C
S11338D0524299469346C244D144CB448F42BF419D
S11338E0C245894199459B41934592417F42494252
S11338F02D0C52420F435B4213437F19FF185B4662
S11339003C19DB0D059A64021C43430213435D1EFC
S1133910AB415A46C00D034352021343E20156D54C
S113392001205A0803401343E207134364085A482A
S1133930604400284DDD5A0709D00F221A40042A9A
S113394005D01A1D9A429B415B42E4181300E20120
S113395004D58020514AC00014406044504A90422B
S113396000DDE3E60125DB0862071A436402019BDC
S11339709146220B4405640D1D407CE68022594685
S11339801203114208D0144206D122431203120B2F
S113399045469946434C6EE65B461A431203120BA6
S11339A0404C68E603005446283B9C400023B9E69B
S11339B000F058FD2030A6E60300283B9F4000237A
S11339C0BB4699468AE600F04DFD203074E6B446C5
S11339D0ADE701252A1A382A06DD019B00241D4083
S11339E000230022994646E61F2A21DC20252000D8
S11339F0AD1A1E00AB40A840D6405D1EAB4130431B
S1133A001843D440430709D00F230340042B05D0A7
S1133A100300181D98429B415B42E418230221D500
S1133A200125019B01241D4000230022994622E622
S1133A301F2521006D42281AC1400800202A1DD0EC
S1133A405F35AA1A944023435C1EA3410725034310
S1133A501D400022002D09D00F2200241A40180016
S1133A60042AD6D1030065076402220BDB082B432A
S1133A7001259946019B00241D40FCE50024E2E752
S1133A80802201251203224301991203120B0D40D7
S1133A909946044CEFE5C046FF030000FFFFFFFE1C
S1133AA0FE070000FF070000F0B54646D6464F4625
S1133AB00C03C0B5CD0F4E00610A440F0C43C10086
S1133AC05800400D84468A460F001903500F490AD6
S1133AD00143C648760DA846DB0FD200844500D1C9
S1133AE0D8E001204340AB4200D1A6E06046351A3D
S1133AF0002D00DC05E1002810D10B00134300D198
S1133B00D7E06B1E002B00D04BE153469F1ABA45F9
S1133B108041641A4042241A01261EE0B34B9E429F
S1133B2048D080231B041943382D00DD19E11F2DD3
S1133B3000DD4CE120230F005B1B10009A409F40E6
S1133B40E840531E9A41E940074317435346DF1B9D
S1133B50611ABA45A44164420C1B230200D4C5E097
S1133B606402650A002D00D1F6E0280000F07AFC1A
S1133B700300083B1F2B00DDE9E020223C00D21AA1
S1133B809D40D4409F4025439E4200DDDBE09E1BC8
S1133B90731C1F2B00DD0AE120223800D21A2900F1
S1133BA097402C009140D8407A1E9741DC40002673
S1133BB001430F437B0709D00F233B40042B05D05F
S1133BC03B1DBB42BF417F42E4191F00230225D5A0
S1133BD0864B01369E4200D1AFE0854B01251C4047
S1133BE043466207FF08640276051743240B760DEB
S1133BF01D4000212403230B0C0D7E4A24051C4385
S1133C001440330523435B00ED075B082B43380066
S1133C1019001CBC90469946A246F0BD01254346B6
S1133C206207FF081743E4081D40704B9E4236D0DC
S1133C3024037605240B760DDBE76346F31A002B89
S1133C4000DC94E06046002835D068488642B1D054
S1133C5080273F043943382B00DCFDE00A4317007A
S1133C6000217A1E9741574457458041091944421F
S1133C700C1923023AD55D4B01369E4200D14BE12B
S1133C8001225B4B1C407B0817401F43E20717438C
S1133C9064088FE70800104300D024E721E72300DD
S1133CA03B4300D1B9E18022120314432403240BC3
S1133CB09FE72E007EE70800104300D1CAE0581E9B
S1133CC08446002800D0E7E05244524580416418FD
S1133CD04042241817000126230207D50226CFE705
S1133CE064462C4300D1B3E12C0067467B0700D027
S1133CF062E76307FF081F4301254346E4081D40AC
S1133D0093E7002D78D1751C6D056D0D012D00DC38
S1133D10F2E05046801A8245BF41651A7F42ED1B8E
S1133D208446280200D48CE05046171ABA429241C5
S1133D300C1B5542651B984614E701254346002495
S1133D401D40002755E72A4CF61A2C4032E73D0067
S1133D5028388540002717E7380000F083FB20301F
S1133D6006E70A43170000217A1E9741EEE6002B6E
S1133D7000D0E5E0731C9C465B055B0D012B00DC69
S1133D809FE01A4B9C4500D1C5E052445245804106
S1133D90641840422418E70752081743640866462B
S1133DA008E71248854200D185E01D00BCE62900E1
S1133DB01F3EF140202B00D17FE04022D31A9D40CA
S1133DC02F437D1EAF4100240F4300268EE72B00B6
S1133DD00F00203BDF40202D71D040235D1BA94004
S1133DE00A43511E8A4100211743AFE6FF07000032
S1133DF0FFFF7FFFFFFF0F80002E3ED0B34EB44580
S1133E0045D0802636046D423443382D00DDA8E0C9
S1133E101F2D00DD1FE1202627005046761BB740EA
S1133E20E84007435046B040461EB041EC4038439A
S1133E30171ABA4292410C1B5242A41A664698467B
S1133E408BE6644667462C4300D08BE600250026AB
S1133E500027EAE61E00ADE61F2B60DC2027F81AD7
S1133E600F00844687401000D840074360468240D4
S1133E70501E8241D9401743F5E6260050460643BA
S1133E8005D0ED43002DD3D0904EB445BDD10C00E8
S1133E901700664698468DE68C4883420BD06346ED
S1133EA0D9E6002D00D096E00800104300D1E2E0EE
S1133EB00C0017009846854E7CE6002580E700211B
S1133EC08EE7230050460343002E00D0A8E0002BC9
S1133ED000D1DEE00B00134300D16BE6524452459F
S1133EE080416418404224181700230200D4FDE6E0
S1133EF0774B66461C405DE6250050460543002E80
S1133F00CFD1002D4FD10C00144300D1A0E00C0000
S1133F10170098464EE666460024002785E61F00F3
S1133F200800203FF8400700202B00D18EE04020FD
S1133F30C31A99400A43511E8A410021174392E64D
S1133F40002E14D126005046064362D0DB43002BDA
S1133F505CD187189742924164185242A41866466D
S1133F6087E650462043441EA041002460E7574E94
S1133F70B4454ED0802636045B423443382B00DDF2
S1133F807FE01F2B00DD8BE0202627005046F61A29
S1133F90B740D84007435046B040461EB04107439F
S1133FA0DC40BF18D6E70D00154300D102E65046A9
S1133FB0801A8245BF41651A7F42ED1B8446280260
S1133FC000D48DE65046171ABA4292410C1B524255
S1133FD0A41A9846EEE50D00154300D16BE7504650
S1133FE06707C00807438020E4080003044207D0A1
S1133FF0CD08054204D12C009846D70849070F4341
S11340007B0FE4001C43FF00304ED3E52F4EB44534
S1134010B4D10C0017006646CCE500270024E8E57F
S1134020002B39D00B00134300D144E7C0086707C5
S113403007438020E40800030442E1D0CB08034294
S1134040DED1D70849070F431C00D9E7002171E7E7
S113405000250027E9E52E002700203EF740202D0B
S11340602FD04026751BAC4050462043441EA0412F
S113407000243843DCE6802400252403134E002763
S1134080D3E5504620430700781E87410024BF181B
S113409060E70C0017008DE50C0017000B4E89E556
S11340A01E002700203EF740202B0CD04026F31A98
S11340B09C4050462043441EA04107430024BF189F
S11340C048E70024D0E70024F3E7C046FF070000D8
S11340D0FFFF7FFF30B5134D0A034B00120B5B0D3E
S11340E0C90F0024AB4210DD0F4CA3420FDC802427
S11340F00E4D64032243ED1A1F2D0BDD0C48C31A29
S1134100DA405442002900D11400200030BD094B8C
S1134110CC18FAE7084CE840A44663449A400243AA
S1134120EFE7C046FE0300001D0400003304000056
S113413013040000FFFFFF7FEDFBFFFF70B50028B5
S113414030D0C317C4185C40C50F200000F08AF9B2
S1134150174B184A1B1AD21A1F2A18DD164AD21AEC
S11341609440002224035B05240B5B0D0021100006
S113417024030A0D240B12052243104C1B05224074
S113418013435B00ED075B082B43190070BD21004E
S113419091400A000B21081AC4405B052403240B38
S11341A05B0DE3E70025002300240022DEE7C04680
S11341B01E0400003304000013040000FFFF0F80FE
S11341C010B5041E28D000F04DF9154B154A1B1AE2
S11341D0D21A1F2A15DD144AD21A9440002224034D
S11341E05B05240B5B0D0021100024030A0D240B36
S11341F0120522430D4C1B05224013435B00590852
S113420010BD210091400A000B21081AC4405B052F
S11342102403240B5B0DE6E7002300240022E2E7DD
S11342201E0400003304000013040000FFFF0F808D
S11342304100090E4B1C70B5DBB24602750AC40F6F
S1134240012B14DDE0239B006D07360BCB180021F6
S11342500A0D280012051C4D32435B052A405B08F9
S113426013435B00E4075B082343190070BD002976
S113427014D1002D1ED0280000F0F4F80A281CDC0C
S11342800B232A001B1ADA40030015339D400F4B01
S113429012031B1A5B05160B5B0DD8E7002D06D025
S11342A0320B802636036D071643094BCFE7084BC4
S11342B00026CCE700230026C9E703002A000B3BB5
S11342C09A400025E3E7C046FFFF0F808903000002
S11342D0FF070000F0B54C00640D0B03621C450F92
S11342E05B0A52052B43C90FC500520D012A28DD74
S11342F03A4AA618FE2E1BDC002E3EDD8001020089
S1134300501E82416D0F2A43DB0013435A0704D029
S11343100F221A40042A00D004338022D2041A4007
S11343205AD00136FF2E03D09B015B0AF4B201E0A0
S1134330FF2400235802E405400AC9072043084328
S1134340F0BD002C07D01D43F2D08020DB00800498
S11343500343FF26DAE72B4303D00523DB08FF2CB6
S113436003D05B025B0AE4B2E4E7002B32D0802086
S1134370C00303435B025B0ADCE73200173214DB41
S113438080221E2712041343BF1B1F2F0FDC144A65
S1134390944664442A00A5402E00A340751EAE41F5
S11343A0FA40334313430026B0E70024D5E7022242
S11343B05242961B1A00F240202F09D00948844625
S11343C06444A3402B435D1EAB41002613439DE789
S11343D00023F7E70023ADE73400BFE780FCFFFFCD
S11343E082FCFFFFA2FCFFFF8446101C62468C4641
S11343F0191C634600E0C0461FB500F0FBF8002816
S113440001D40021C8421FBD10B500F055F8404248
S1134410013010BD10B500F0EDF8002801DB0020DC
S113442010BD012010BDC04610B500F0E3F800280F
S113443001DD002010BD012010BDC04610B500F004
S113444075F8002801DC002010BD012010BDC04615
S113445010B500F06BF8002801DA002010BD01202F
S113446010BDC0461C2101231B04984201D3000C3B
S113447010391B0A984201D3000A08391B099842D3
S113448001D30009043902A2105C40187047C046E9
S11344900403020201010101000000000000000009
S11344A010B5002903D1FFF7DDFF203002E0081C1E
S11344B0FFF7D8FF10BDC046F0B54F464646D64676
S11344C05C00C0B51F03DB0F9A46174B0E034D006B
S11344D084468046360B6D0DC90F91463F0B640D23
S11344E001209D4208D09C4201D0A5420BD01CBCA7
S11344F090469946A246F0BD63463343F7D1AC4299
S1134500F5D13A43F3D10120BE42F0D1C845EED1F2
S1134510514507D0002DEAD163461E433000461EA4
S1134520B041E4E70020E2E7FF070000F0B54546AC
S1134530DE4657464E46E0B51F033D0B2C4F0E0397
S11345404C00AB465D008446360B640DC90F9046A3
S11345506D0DDB0FBC422AD0254FBD422DD0002C5F
S11345600FD130430700814678427841C0B2002D14
S113457017D15F463A4314D14B460020002B0AD092
S113458006E0002D02D15846024301D0994218D0CA
S11345904842012108433CBC90469946A246AB469A
S11345A0F0BD0028F2D00120013B1843F3E73700A7
S11345B00743D1D002204042EDE75F461743CED0F7
S11345C0F8E7AC42E4DC03DA481E01210843E2E7E1
S11345D05E45DDD806D000205E45DCD20123481EAE
S11345E01843D8E7C445D3D80020C445F6D3D2E74E
S11345F0FF070000F0B54E464546DE4657465C00D0
S1134600E0B51F03DB0F99462A4B0E034D00C90F7B
S11346108446360B6D0D8B4690463F0B640D9D42D0
S113462020D0244B9C4222D0002D12D1304343424F
S11346304341DBB2002C1FD0002B0CD04B46012091
S1134640013B034318003CBC90469946A246AB4646
S1134650F0BD002C16D0CB4517D05B465942012340
S11346600B43EFE7310002230143EBD1D9E73900D3
S113467002231143E6D1D7E73A43DDD100230028D2
S1134680E0D0EAE73A43E6D1E7E7A542E5DC05DB1B
S1134690BE42E2D807D00023BE42D3D259460123FA
S11346A001390B43CEE7C445D7D80023C445F5D31D
S11346B0C8E7C046FF07000070B50D4E0D4D00243D
S11346C0AD1BAD1005D0A300F35801349847A542A3
S11346D0F9D105F015FF084E084D0024AD1BAD10AF
S11346E005D0A300F35801349847A542F9D170BD11
S11346F00CA500000CA500000CA5000014A50000EA
S1134700F0B505000F2A2FD90B0003439B0734D1C2
S113471016000C000300103E350901352D01451922
S113472027681F6067685F60A7689F60E768103448
S1134730DF6010339D42F3D10F239E431036851959
S113474089191340032B1AD91E1F0023B4080134FE
S1134750A400CF58EF500433A342FAD10324A64354
S1134760331D2240C918ED18002A05D00023CC5C63
S1134770EC5401339342FAD1F0BD0500F6E71A0078
S1134780F2E7C046F0B5830743D0541E002A3FD059
S1134790CEB20200032502E01A00013C38D3531CB8
S11347A016702B42F8D1032C2AD9FF220A40150295
S11347B015432A0415430F2C14D927001A00103F5F
S11347C03E09013636019E19156055609560D56025
S11347D010329642F8D10F2297431037DB19144058
S11347E0032C0DD91A00271FBE080136B6009E19E6
S11347F020C2B242FCD1032297430437DB19144090
S1134800002C05D0C9B21C19197001339C42FBD18C
S1134810F0BD14000300C6E70FB400B5064983B029
S113482004AB086804CB8168019300F013F903B06A
S113483008BC04B01847C0467C0000204A424A41E4
S1134840802310B55200DB0000F002F810BDC04612
S1134850F0B54746CE4680B51F00634B83B01D6854
S1134860040088461600002D02D0AB6B002B66D0E6
S1134870022E05D0012E00D9A1E0002F00DA9EE01F
S1134880636EDB0733D52100280002F027FE216B7D
S1134890002908D023004033994202D0280002F0B6
S11348A021FF002323630023A36163600C22A35E22
S11348B01A063DD44D4A1340A381022E1ED001ABEB
S11348C06A462100280003F0A9F9A3891843A081AE
S11348D0002F38D1009F380003F018FA80460028D2
S11348E000D16FE08022A3891343A3812EE0A38922
S11348F09B05C8D4A06D03F08DF9C4E700250222FE
S113490013430022A260220043322260226101226A
S1134910616EA3816261114204D19B0502D4A06D32
S113492003F07AF9280003B00CBC90469946F0BD18
S11349302169280002F0D6FE0C22A35EBAE7280003
S113494002F026FE94E74346002BC4D0AB6B002B49
S113495027D0009B9F422AD08023A2891B011343A6
S11349601BB2A381012E26D0424622602261082276
S11349709BB267611A400BD0DA0710D500220125DB
S1134980A260626E7F42A7611540C6D00025C9E7C8
S1134990A2600125626E1540BFD00025C2E7A76062
S11349A0F7E7280002F0F4FD009B9F42D4D10C22CB
S11349B0A35E012ED8D101221343A381D4E701259C
S11349C06D42AFE7009B9946BB4205D0180003F047
S11349D09DF98046002804D101250C22A35E6D4276
S11349E08DE74F467EE7C0467C0000205CF3FFFF66
S11349F010B5830725D00378002B24D003000321AE
S1134A0002E01A78002A1AD001330B42F9D119684E
S1134A100E4A0F4C8A188A43224206D1043319687D
S1134A200A4A8A188A432242F8D01A001B78002BBB
S1134A3003D0013211780029FBD1101A10BD181AC5
S1134A40FCE70300E3E70020F8E7C046FFFEFEFEB4
S1134A5080808080F0B5DE464E4645465746E0B538
S1134A60C3B0894614001D000F930600069003F09E
S1134A70BFF8036818001893FFF7BAFF1790002EC9
S1134A8004D0B36B0793002B00D1A7E04B465B6EB9
S1134A90DB0778D44B460C21595E8BB29A056ED550
S1134AA080229201134209D10A434B4649469A8116
S1134AB0496ECC4B0B4049464B6693B21A0767D5F7
S1134AC04A461269002A63D01A221A400A2A00D1DF
S1134AD088E032AB25930023CB4625AFBB607B60D7
S1134AE0079414931693159332AE19931A930A9359
S1134AF0079C2378002B01D100F09EFD252B03D1C8
S1134B0000F09AFD252B03D001342378002BF9D132
S1134B10079BE51A10D0079B75603360BB685B196F
S1134B20BB607B6801337B60072B4CDC08360A9B37
S1134B309C46AC4463460A932378002B01D100F0D1
S1134B4099FC631C0793002316AAD37701225242CF
S1134B50924600220B922032914620326378002143
S1134B60002000249446079A013207921A00203A42
S1134B70582A00D9E7E29C4D9200AA5897464B4622
S1134B80986D03F047F84B460C21595E8BB287E7CA
S1134B904946069801F00EFB4B4600283AD05B6E5E
S1134BA0DB0705D44B469B899B0501D400F0CFFF5E
S1134BB001235B420A930A9843B03CBC9046994651
S1134BC0A246AB46F0BD3A005946069804F0A4F953
S1134BD0002801D000F0CEFC32AEA8E7069802F01F
S1134BE0D7FC53E74A460E21525E002A00DA70E7EA
S1134BF04A46526ED20705D49B0503D44B46986DA2
S1134C0003F00AF82B0022004946069801F08EFAB8
S1134C100A90D0E79B8957E70B9B0F925B420B935B
S1134C2004231C43079B1B789DE7079B01211B78EA
S1134C302B2098E7079B5A1C1B7890462A2B01D1FE
S1134C4001F038FA1A000025303AAA46092A01D997
S1134C5001F06DF925004346544688468246A1007A
S1134C600C1918786400A4180200591C303A0B007F
S1134C70092AF4D90791030041465046A2462C0064
S1134C8074E71293002901D001F02EFA574B1993BF
S1134C90A30601D500F09AFEE30601D500F09AFDC3
S1134CA0630601D400F096FD0F9B1A880C92002233
S1134CB004330D920F93E30701D400F076FD0C99B1
S1134CC00D9A0B0013431A000223002A08D0302047
S1134CD01EA9087048256846401900781C4348708E
S1134CE00021884616A8C1775146013100D1E6E07B
S1134CF08021200088430990002A00D0E3E0524636
S1134D00002A01D000F038FC002B01D000F00CFD8B
S1134D10012032AB20400E90119308D0272330217C
S1134D2028AAD15416AA944648336344119353468F
S1134D300E9A0893924500DA08920023139343468F
S1134D40002B02D0089B013308930223099A1A40CE
S1134D50914602D0089B023308938423099A1A408F
S1134D60109200D007E20B9B089A9C1A002C00DCDE
S1134D7001E21F49BA687B688846102C21DD3100A6
S1134D8010255E4603E0103C0831102C17DD404628
S1134D901032013308604D60BA607B60072BF2DD8E
S1134DA03A003100069804F0B7F8002801D000F06A
S1134DB0CFFC103CBA687B6832A9102CE7DCB34600
S1134DC00E00414674600133A4183160BC607B60FE
S1134DD0072B01DD00F0AEFC16ABDB7F08369846EE
S1134DE0CAE1C046FFDFFFFF14A100009CA200003F
S1134DF0BCA200000022079D303BA8460B921A007B
S1134E0008942C00554682464046884611000022EC
S1134E1093009A18037852008A1819000134303923
S1134E2020000929F4D907945046089C0B92414666
S1134E30AA469BE60F9A12931368202108936B46A7
S1134E405B181B7828AD2B70002316A9CB771300B1
S1134E5004330F93002309949846013308930E9367
S1134E60002311959A4613936FE71293002901D0FA
S1134E7001F04DF90F9AA30601D500F05AFDE3069F
S1134E8001D500F0ABFC630601D400F0A7FC0021BF
S1134E90535E0C930432DB170D930F92002B01DA4F
S1134EA000F0B2FD0C990D9A0800514616ABDB7F59
S1134EB01043984602000123013100D018E7002A6C
S1134EC000D15AE30994012B01D100F006FC022B16
S1134ED000D080E3199C0F20A146B44632AB1900E0
S1134EE00C9A0D9B04004D4614402C5D1E071509B9
S1134EF001392E430C701C092300340032001C437A
S1134F00F0D10C920D9332AB5B1A119166460E935D
S1134F100DE763461C43079B1B7824E6079B1B781D
S1134F206C2B01D100F08CFE102214431BE60029E7
S1134F3001D001F0D5F8A30601D500F076FEE30612
S1134F4000D510E1630600D40DE169460F9B098D7D
S1134F501A680433089211800F93C9E50F9930221F
S1134F600B680C9300230D9302331C431EAB1A7081
S1134F7048325A700B0004330F93C14B12921993A9
S1134F800C9A0223ACE64B461C43079B1B78EAE5CC
S1134F9012930F9B16A91D1D1B681A001193002361
S1134FA0CB77002A01D100F001FF5346013301D130
S1134FB000F064FE52460021119803F065F90028C0
S1134FC001D100F078FF119BC31A1A000E93DB4342
S1134FD0DB171A4016ABDB7F0892984600230F9527
S1134FE009949A461393AAE608231C43079B1B784B
S1134FF0B9E5129310231C43A30601D500F0A7FCC6
S1135000E30600D5EEE3630600D4EBE30F9B1A88B6
S11350100C92002204330D920F930C9A00235FE646
S1135020129310231C43A30601D500F0BAFCE30637
S113503000D5DAE3630600D4D7E30F9B1A880C92F9
S1135040002204330D920F930C9A012348E6129325
S1135050002901D001F057F88A4B199318E601236F
S11350601C43079B1B787EE580231C43079B1B780E
S113507079E5079B1B78002800D074E501212030D6
S113508071E51293002901D001F039F807220F9B32
S113509007339343013294469C4462460F921A6844
S11350A016925B6801221593159B169D5B005B08A5
S11350B098465242744B2800414604F0E7FD00280C
S11350C001D000F0B4FC01226F4B5242280041464B
S11350D0FFF7AAF9002801D000F0A9FC0022002360
S11350E016981599FFF796F9002801D000F055FDA0
S11350F016ABDB7F9846129B472B01DD00F0B4FD15
S1135100624B119380239C437D3B08930E930023B1
S113511009949A46139312E60F9B1A1D1B680B936E
S1135120002B00DA78E5079B0F921B781BE512939E
S1135130002901D000F0CCFF10231C439AE61293FF
S113514071E7129358E71293002901D000F0D3FFBE
S1135150129B002B00D18DE128AD2B70002316AAE1
S1135160D377099478E60F9A0A99136819601300A3
S113517004330F93BCE4BC684346002B0FD016AA3B
S11351801F23944663443360012373607B680134B6
S11351900133BC607B60072B00DD03E208364B461D
S11351A0002B0CD01EAB3360022373607B68023487
S11351B00133BC607B60072B00DDFDE10836109BEA
S11351C0802B00D173E153460E9A9D1A002D32DDD7
S11351D02F4A7B689146102D22DD10229246220030
S11351E05C4603E0103D0836102D17DD494631605A
S11351F05146103201337160BA607B60072BF1DDD8
S11352003A002100069803F087FE002800D08AE1C6
S1135210103DBA687B6832AE102DE7DCA34614005B
S11352204A466419013332607560BC607B60072BA9
S113523000DDADE10836099BDB0500D5BEE0119B1E
S113524033600E9B9C4673607B6864440133BC608E
S11352507B60072B00DDA6E00836099B5B074AD577
S11352600B9B089A9D1A002D45DD0A4A7B689046DF
S1135270102D2FDD1022914622005C4610E0C0461E
S11352809CA2000088A20000FFFFEF7F78A200002C
S1135290CCA20000BCA20000103D0836102D17DD82
S11352A0D14910323160494601337160BA607B6084
S11352B0072BF1DD3A002100069803F02DFE0028AB
S11352C000D030E1103DBA687B6832AE102DE7DCC7
S11352D0A346140042466419013324C6BC607B60B3
S11352E0072B08DD3A005946069803F015FE0028FE
S11352F000D03FE1BC680B9B08998B4200DA0B009D
S11353000A9A94469C4463460A93002C00D029E1EF
S1135310002332AE7B60FFF7EBFB149B012B00DC18
S113532003E1119B01343360012373607B68BC602B
S113533001337B60072B00DDEFE20836189A013356
S11353403260179A9846944664447260BC607B60ED
S1135350072B00DD18E30836002200231698159960
S1135360FFF752F8002800D0F4E1119D149B013599
S1135370013B35607360E41801239C46E0444346D6
S1135380BC607B60072B00DDE0E0083621AB3360B6
S11353901A9B9C467360434664440133BC607B6043
S11353A0072B00DC58E73A005946069803F0B4FD91
S11353B0002800D0DEE0BC6832AE4EE7129B652BBD
S11353C0ABDD0022002316981599FFF71DF800287D
S11353D000D134E1854B01343360012373607B6871
S11353E0BC6001337B60072B00DDDCE308361F9BC8
S11353F0149A934203DB099BDB0700D4B7E3189BA1
S1135400BA683360179B9C4673607B6862440133BF
S11354101400BA607B60072B01DD00F019FC08362C
S1135420149B5D1E002D00DC17E7714A7B689146D2
S1135430102D00DCC3E11022904622004C46D946D0
S113544004E00836103D102D00DC7CE341461032A8
S1135450013334607160BA607B60072BF1DD3A0080
S11354604946069803F058FD00280BD1BA687B68BA
S113547032AEE7E7BB68D946002B01D000F04CFD03
S113548000237B604B465B6EDB070DD44B469B8948
S11354909A0505D55B0601D4FFF78DFBFFF788FB62
S11354A04B46986D02F0B8FB4B469B89F2E70B9B89
S11354B0089A9D1A002D00DC85E64D4A7B689146CA
S11354C0102D24DD1022210090465C4632004E4609
S11354D003E0103D0832102D15DD40461031013334
S11354E016605060B9607B60072BF2DD3A00210042
S11354F0069803F011FD002815D1103DB9687B68AA
S113550032AA102DE9DCA346B1460C0016004A4627
S11355106419013332607560BC607B60072B00DD69
S113552063E208364FE6A146ACE70123099A134229
S113553000D0F6E673607B68119A0133013432605F
S1135540BC6098467B60072B00DC1EE73A00594696
S1135550069803F0E1FC00280CD17B68BC689846EF
S113556032AE13E73A005946069803F0D5FC0028FA
S113557000D1CDE6D94685E7099C012B00D148E14D
S1135580022B23D10994002300240C930D94A1E44D
S11355903A005946069803F0BFFC0028EAD1BC68DB
S11355A032AE48E63A005946069803F0B5FC0028A6
S11355B0E0D1BC6832AEF2E53A005946069803F0F1
S11355C0ABFC0028D6D1BC6832AEF8E509940023C0
S11355D000240C930D940C980D99534632AA9146CD
S11355E00893B24607E0C046BCA20000B8A200007F
S11355F0CCA20000A1464A0794464B4665465C1E71
S1135600C6080723CA08354311002A000340303373
S1135610237028000A43EDD10C900D910899564649
S11356208A4609994A461194C90700D5E0E032AB8D
S11356301B1B0E93FFF77BFB079CFFF77DFA1F985C
S1135640002800DCB9E2139A1499130090468B42A7
S113565000DD88464346002B0CDD119B4444336037
S1135660434673607B68BC6001337B60072B00DDBD
S113567089E308364346DB434246DB171340139A5B
S1135680D31A9846002B00DCEBE0102B01DC00F071
S1135690D9FCDC4A7B68914610224D469246220092
S11356A04446D84604E00836103C102C00DCBFE029
S11356B051461032013335607160BA607B60072B4C
S11356C0F1DD3A004146069803F026FC002800D09C
S11356D0B6E3BA687B6832AEE6E70D9B002B00D1D7
S11356E092E00C9C0D9D32ABB1461E0020002900B7
S11356F00A220023FDF7B2F9013E30323270002352
S1135700200029000A22FDF7A9F9030004000D0076
S11357100B43EBD1320032AB9B1A11960C940D95CE
S11357204E460E93FFF703FB00230E9332AB119307
S1135730FFF7FDFA3A005946069803F0EDFB0028FE
S113574000D017E716ABDB7FBC68984632AE13E592
S1135750B14697E6149B5D1E002D00DC16E6A94BAE
S11357609946102D00DC0AE1102322009A465C467B
S1135770434604E00836103D102D00DCFCE04946A9
S113578031605146103201337160BA607B60072B7F
S1135790F0DD3A002100069803F0BEFB002800D09B
S11357A0C1E6BA687B6832AEE5E70C990D9A080049
S11357B0104302230200FFF793FAA34614004A465B
S11357C06419013332607560BC607B60072B00DCB8
S11357D042E5E8E50F9B1A68FFF768FA1368089337
S11357E0FFF757FB0F9B1A6812E40F9B1A6826E415
S11357F0302B00D13CE23023023A137032AB9B1AB7
S11358000E931192FFF793FA0C9B092B00D968E7CA
S1135810099C27220C9B28A930338B54012316AAF8
S113582094460E936E33634409941193FFF77FFA01
S1135830C346A946A04614004A4632604246444440
S113584001337260BC607B60072B00DC8DE13A00A1
S11358505946069803F060FB002800D08AE6BC682D
S113586032AE1F9B149A934200DB79E1189A32609E
S1135870179A944672607A6864440132BC607A6014
S1135880072A00DD76E10836149A1399D31A521ABE
S113589090469A4200DD98464246002A0FDD13994D
S11358A0119A8C4662443260424672607A6844447B
S11358B00132BC607A60072A00DD89E2083642467C
S11358C0D543ED1715405D1B002D00DCC5E44D4AA2
S11358D07B689146102D00DC71E71022904622006F
S11358E05C4604E00836103D102D00DC65E74946AF
S11358F031604146103201337160BA607B60072B1E
S1135900F0DD3A002100069803F006FB002800D0E1
S113591009E6BA687B6832AEE5E73A00594606986C
S113592003F0FAFA002800D024E6BC687B6832AEA3
S113593004E5072307329A4301339C4694446346A3
S11359400F93536812680D930C92FFF7A7FA07227E
S11359500F9B07339343013294469C4462460F9253
S11359601A685B6811001A00080010430C910D922C
S113597000230200FFF7B4F9A346984614004B46EF
S1135980756033606419F7E43A005946069803F0E9
S1135990C3FA002800D0EDE57B68BC68984632AEB7
S11359A0DAE407220F9B07339343013294469C4465
S11359B062460F921A685B6811001A0008001043CF
S11359C00C910D9201230200FFF78AF907220F9B25
S11359D007339343013294469C4462460F921A68FB
S11359E05B680C920D93FFF766F93A0059460698E6
S11359F003F092FA002800D0BCE5BC6832AEFFF791
S1135A00E2FBC046CCA200000C980D990023424250
S1135A108B4111001A002D2316A8C37708001043E8
S1135A200C910D92984602002C3BFFF75DF91699F4
S1135A30159D0A0008002B00290004F027F900280E
S1135A4000D0C6E25346013300D19FE02023129ACE
S1135A509A430E92472A00D1A1E180235B0023439D
S1135A600993159B002B00DAEDE1169A08930023A5
S1135A7091461093129B662B00D1B8E1462B00D1BE
S1135A8037E20E9A0698453A13005942594120AB21
S1135A900D0003931FAB0293022323AA55441B92C8
S1135AA0049200930195089B4A4600F0ABFC129BBC
S1135AB01190672B00D00BE2119B9846A844E30792
S1135AC000D477E20023002248460899FEF79CFCA4
S1135AD0434600280AD1239B434507D23021404640
S1135AE05A1C23921970239B9842F9D8119A9B1A35
S1135AF014930E9B472B00D1D0E0129B652B00DC46
S1135B00D5E2129B662B00D1C6E11F9B1393149B15
S1135B10139A1900914200DDA0E1E30700D542E2A7
S1135B20D343DB1711001A40672308920E91129396
S1135B30109B002B00D0A9E016ABDB7F9846002316
S1135B409A46FFF7FCF8CB46A146140037E64B46CD
S1135B50986D02F061F801235B420A93FFF72BF87A
S1135B60099AD20700D48FE680E6083679E6BC6845
S1135B70FFF773FB3A005946069803F0CDF9002865
S1135B8000D0F7E41F9BBC6832AE7DE62023129A56
S1135B909A431A3B0E929A465FE72D2316AAD377AF
S1135BA09846FFF7A8FA3A005946069803F0B4F964
S1135BB0002800D0DEE432AE19E4E34B0134336054
S1135BC0012373607B68BC6001337B60072B00DDBD
S1135BD055E10836002807D1149B002B04D1099BFA
S1135BE0DB0701D4FFF739FB189B3360179B1919A6
S1135BF073607B68B96001337B60072B00DDC4E10F
S1135C0032000832002800DA95E11198013310605F
S1135C1014987B6044185060BC60072B01DDFFF7CB
S1135C20C2FB08321600FFF718FB0F990A9A0B689B
S1135C301A60D2175A600B0004330F93FEF758FF13
S1135C404B46079A1C43013213780792FEF78BFFE9
S1135C503A005946069803F05FF9002800D089E419
S1135C60BC6832AEFFF7DCFBB84B1193FFF74AFA7E
S1135C70119A32AB9B1A0E93FFF759F81198FEF75D
S1135C80B7FE02000E900300FFF7A1F92D2316AA18
S1135C90D377984600239A46FFF754F81F9B139333
S1135CA0DA1C02DB9A4500DB31E7129B023B1293BC
S1135CB02C22139B48215D1E16AB9B186A46521872
S1135CC012781F951A70002D00DACBE12D212B23B9
S1135CD016AA52181370092D00DC6DE116AA3B2395
S1135CE0944663449A46B146A046564600E02600D0
