S00D000054616368792E737265631E
S1130000182200205D02000059020000590200007D
S113001000000000000000000000000000000000DC
S11300200000000000000000000000005902000071
S11300300000000000000000590200005902000006
S11300405902000059020000E111000059020000A9
S11300505902000059020000590200005902000030
S11300605902000059020000590200005902000020
S11300705902000059020000590200005902000010
S11300805902000059020000590200005902000000
S11300905902000059020000DD210000590200004D
S11300A0590200005902000010B5064C2378002BB9
S11300B007D1054B002B02D0044800E000BF012308
S11300C0237010BDE000002000000000183D000077
S11300D0084B10B5002B03D00749084800E000BFC7
S11300E007480368002B00D110BD064B002BFBD042
S11300F09847F9E700000000E4000020183D0000E4
S1130100183D00000000000010B50A00006800213E
S1130110014B984710BDC046DD01000000B583B017
S113012001606B46D91D064B9847002805D16B46E4
S113013007331B78E52B00D0043003B000BDC04664
S11301400901000010B50A0000682D21014B9847F1
S113015010BDC046DD01000010B50A0000682D2165
S1130160014B984710BDC046F501000010B50A00C8
S1130170006806233221014CA04710BD290200006B
S113018010B582B004006B46D91D074B9847002870
S113019001D002B010BD6B46D97908231943200061
S11301A0024B9847F5E7C04645010000590100009D
S11301B070B50C0015001E00016082808360080089
S11301C0044B9847320029002000034B9847002035
S11301D070BDC0460D0900001909000010B5006883
S11301E00123034CA0470323C0170340180010BD8C
S11301F02D09000000B585B003AB19705A708288D0
S113020069460A8002220192054A4A8002930068E4
S1130210044B98470323C0170340180005B000BDE2
S11302200080FFFF7509000010B50068024CA0476C
S1130230C00F400010BDC0462D09000010B5034B8F
S11302409847034B9847034B984710BDC9070000D4
S1130250B52200006D210000FEE7000010B5174A2A
S1130260174B9A4211D01A00164B9A420DD2164AD5
S113027003339B1A9B0801339B00002210480F494B
S11302808C58845004329A42FAD1104A104B9A4244
S11302900AD2D3430E495B1803218B4304339B18C2
S11302A0002102C29342FCD10A4AFF210A4B8B432C
S11302B093600A4B98470A4B9847FEE7183D0000A5
S11302C000000020E000002004000020E0000020E6
S11302D01402002000ED00E000000000A52800004A
S11302E0711F000030B5114BAC225200995C0125FE
S11302F0A94301242143C9B299549E204000195CAA
S11303004A3AFF3A91430D3A114319545A21FF31A5
S11303105A5CAA432243D2B25A541A5C4B39FF396D
S11303200A4011310A431A5430BDC04600600041EE
S1130330064B4021C02299500331043A9950044A93
S1130340D36941390B43D3617047C046001C004058
S11303500008004010B5054B9847002204490548A1
S1130360054B9847054B984710BDC0463103000024
S11303700004004268010020A10E0000E502000014
S1130380F0B5CE46474680B5C025ED0584248021CE
S1130390C90529511A4BDE201A5C0426B446664668
S11303A03243D2B21A5498229146A950195C0127BB
S11303B0B94301263143C9B219541F38195C893A2B
S11303C091430D3A114319548022120690462A5142
S11303D05B34195D62461143C9B219554246494618
S11303E06A501A5DBA433243D2B21A551A5C89393B
S11303F00A4011310A431A540CBC90469946F0BD88
S113040000600041064B4021C42299500131083A52
S11304109950044AD3693D390B43D3617047C046B0
S1130420001C00400008004010B5044B98470449E4
S11304300448054B9847054B984710BD0504000038
S11304400008004274010020CD0800008103000070
S1130450F0B5C64600B5D04B4624185D012188434B
S113046001221043C0B218553327D85D373CA0464B
S1130470A0431043C0B2D8553834185D88431043A4
S1130480C0B21855DE5D383C264010200643F6B253
S1130490DE554627FF37DE5D8E431643F6B2DE5542
S11304A0133FDE5D26400643F6B2DE551437DE5DAB
S11304B08E431643F6B2DE553427FF37DE5D4546DC
S11304C0AE431643F6B2DE554826FF36B4469E5D6B
S11304D08E431643F6B265465E55DE5D26400643FE
S11304E0F6B2DE55EB3FDE5D8E431643F6B2DE55C3
S11304F0143FDE5D4546AE431643F6B2DE553A354B
S11305005E5D8E431643F6B25E55DE5D26400643BD
S1130510F6B2DE551637DE5D8E431643F6B2DE556F
S1130520153FDE5D4546AE431643F6B2DE553C3517
S11305305E5D8E431643F6B25E55DE5D264006438D
S1130540F6B2DE551437FF37DE5D8E431643F6B23E
S1130550DE55143FDE5D4546AE431643F6B2DE5526
S11305604A25FF355E5D8E431643F6B25E55DE5D69
S113057026400643F6B2DE551637DE5D8E4316433B
S1130580F6B2DE553627FF37DE5D4546AE431643E9
S1130590F6B2DE554C25FF355E5D8E431643F6B24A
S11305A05E55DE5D26400643F6B2DE551737DE5D46
S11305B08E431643F6B2DE55163FDE5D4546AE4326
S11305C01643F6B2DE554E25FF355E5D8E43164367
S11305D0F6B25E55DE5D26400643F6B2DE556B3F4D
S11305E0DE5D8E431643F6B2DE55163FDE5D2640D1
S11305F00643F6B2DE551737DE5D8E431643F6B278
S1130600DE55163FDE5D4546AE431643F6B2DE5573
S1130610BE355E5D8E431643F6B25E55DE5D264002
S11306200643F6B2DE551837DE5D8E431643F6B246
S1130630DE55173FDE5D4546AE431643F6B2DE5542
S1130640C0355E5D8E431643F6B25E55DE5D2640D0
S11306500643F6B2DE559737DE5D8E431643F6B297
S1130660DE553827FF37DE5D4546AE431643F6B206
S1130670DE555025FF355E5D8E431643F6B25E555A
S1130680DE5D26400643F6B2DE55E93FDE5D8E436D
S11306901643F6B2DE55173FDE5D4546AE431643BC
S11306A0F6B2DE5540355E5D8E431643F6B25E55B6
S11306B0DE5D26400643F6B2DE551A37FF37DE5DAF
S11306C08E431643F6B2DE55183FDE5D4546AE4313
S11306D01643F6B2DE555225FF355E5D8E43164352
S11306E0F6B25E55DE5D26400643F6B2DE551A3795
S11306F0DE5D8E431643F6B2DE553A27FF37DE5DE4
S11307004546AE431643F6B2DE555425FF355E5DCD
S11307108E431643F6B25E55DE5D26400643F6B2BE
S1130720DE551B37DE5D8E431643F6B2DE559D263D
S113073076009F5D4546AF433D001543EDB29D55A0
S11307405627FF37DD5D8D432A43D2B2DA559A5DD1
S113075014402043C0B29855D0229B5C8B431900AF
S113076001242143C9B20C4B9954B820195CC13AF5
S113077091432143C9B21954D1215A5C0125AA439A
S11307802243D2B25A541A5CC2390A4001310A4394
S11307901A5404BC9046F0BD0060004110B50649EF
S11307A0CA6980231B021343CB610448044B984756
S11307B0044B984710BDC046003C00426401002031
S11307C0E90900005104000010B50F4B98470F4C85
S11307D0626980239B00134363610D4B98470200B9
S11307E00C490D480D4B98470D4B98470D4B9847B6
S11307F00D4B98474121EC230C4AD150E2698023E8
S1130800DB011343E36110BDE90F00000008004061
S1130810DB1100000024004048010020910C00007E
S113082055030000290400009D070000001C00403F
S1130830EFF31083036072B6BFF35F8F7047BFF3AB
S11308405F8F036883F310887047000010B5044B72
S11308501C68044B984701002000034B984710BDC7
S1130860FC000020C50F0000E10F000010B584B0AB
S1130870140001AB1438828B1A800294054A5A8002
S113088003911900044B9847002800D1200004B0BC
S113089010BDC0460080FFFFD914000010B584B01D
S11308A0140001AB1438828B1A800294054A5A80D2
S11308B003911900044B9847002800D1200004B08C
S11308C010BDC0460180FFFFD914000070B50400BC
S11308D00D00431E9841C0B25E220749074B98475A
S11308E029002000064B9847002803D1054BA3613B
S11308F0054B636170BDC046E0380000190F00006D
S1130900251400009D0800006D08000010B5014B7F
S1130910984710BD551400008905890D8023DB001C
S11309201A400A43828310007047000070B586B0F5
S1130930040016001D006B46D971073303A9828B8E
S11309400A8001224A6000224A808B60074B984744
S1130950002801D006B070BD03A9054B4B808E6002
S11309604D602000014B9847F4E7C046D9140000BD
S11309700180FFFF10B5014B984710BDD91400004A
S113098070B506000C00150000280DD00800431EA9
S11309909841C0B234220549054B984733682A0070
S11309A021003000984770BD0020F3E7FC380000B8
S11309B0190F000070B506000C00150000280DD0BA
S11309C00800431E9841C0B23D220549054B984793
S11309D073682A0021003000984770BD0020F3E7B7
S11309E0FC380000190F000070B504000D00002849
S11309F00CD00800431E9841C0B22B220449054B79
S1130A00984729002000044B984770BD0020F4E764
S1130A1010390000190F0000851A000010B50400F9
S1130A20431E9841C0B23E220349044B984720001C
S1130A30034B984710BDC04610390000190F000041
S1130A40291B000070B504000D00431E9841C0B27C
S1130A504F220449044B984729002000034B984730
S1130A6070BDC04610390000190F0000411B000082
S1130A7070B504000E00150000280DD01000431EB0
S1130A809841C0B25F220549054B98472A003100BE
S1130A902000044B984770BD0020F3E71039000094
S1130AA0190F0000591B000070B504000D0016005A
S1130AB0431E9841C0B268220449054B984732004E
S1130AC029002000034B984770BDC0461039000030
S1130AD0190F0000991C0000F0B5CE4600B582B095
S1130AE001900F0016001D00002808D0002A15D11F
S1130AF0732213490020134B984700200AE0732205
S1130B000F4900200F4B98470020002E0BD101E025
S1130B100D20404202B004BC9146F0BD7322084946
S1130B200120084B98470024074B99462A19395D40
S1130B300198C8470028EBD10134A642F6D8E9E76A
S1130B4010390000190F0000991C0000F8B50400CA
S1130B500D0016001F00002812D0002912D000201A
S1130B60002A02D01800431E984182220649074BEE
S1130B7098473B00320029002000054CA047F8BDEF
S1130B800020F2E70020F0E710390000190F000000
S1130B901D1E0000F8B5CE46474680B58146036861
S1130BA09C46002B05D08E681C0000250127BF1A27
S1130BB00DE0124B984718E0FB18A06880464344A8
S1130BC0B3420CD223682500002B0BD01C006368B1
S1130BD09342F1D8A068804643449B1AF0E7A445A9
S1130BE007D02C002000064B98470CBC9046994631
S1130BF0F8BD4846014B9847F7E7C046450F00004B
S1130C00710F0000F0B5C64600B582B00700446914
S1130C100369013398460361037EDB0711D4037E25
S1130C209B070ED4002C10D0434662689B1AA2681E
S1130C3093420AD314239C46844463460193124E80
S1130C4014E03B7E022213433B7602B004BC904680
S1130C50F0BD7D69E36820009847002DF5D02C0095
S1130C6043466A689B1AAA689342EED30198B04738
S1130C70237C012BEDD14346636042462100019859
S1130C80024B9847E5E7C046790F0000950B00003A
S1130C9070B505000C00002811D00800431E9841CF
S1130CA0C0B23B220749084B984721002800074B54
S1130CB0984700232B61064B2B60002070BD002059
S1130CC0EFE7C0462C390000190F0000F9100000AE
S1130CD0050C000010B50400431E9841C0B2532215
S1130CE00749084B98472000074B9847002804D130
S1130CF02000064B9847002010BD11204042FBE71E
S1130D002C390000190F0000C1110000651100000A
S1130D1070B582B004000D00002824D00800431EE2
S1130D209841C0B27A221E491E4B9847237E012265
S1130D301343237626001436290030001A4B9847B3
S1130D40002812D123696B60226929003000174BF7
S1130D509847237E012293432376237E00209B071A
S1130D600FD402B070BD0020DCE7237E0122934340
S1130D7023767E320A4900200A4B984712204042CB
S1130D80EFE701A80A4B9847237E02229343237678
S1130D902000084B984701A8074B98470020E0E73C
S1130DA02C390000190F0000210F0000950B0000E2
S1130DB031080000D91100003F080000F8B5CE4604
S1130DC0474680B504000F009046002826D000292D
S1130DD026D01000431E9841F1221249124B984725
S1130DE00834124D2000A8470028FBD00026104BE1
S1130DF099460E4DB95D2000C8472000A847002839
S1130E00FBD001364645F5D30A4D2000A8470028FB
S1130E10FBD030000CBC90469946F8BD0020DBE7BF
S1130E200020D9E744390000190F00000514000020
S1130E30F51300000F140000F8B5CE46474680B500
S1130E4004000F00904600281DD000291DD010007A
S1130E50431E9841862252000D490E4B98470026A6
S1130E6008340D4D0D4B99462000A8470028FBD0AF
S1130E702000C847B85501364645F5D330000CBCB0
S1130E8090469946F8BD0020E4E70020E2E7C0461A
S1130E9044390000190F000019140000FD1300006C
S1130EA070B505000C00002813D00800431E9841BB
S1130EB0C0B234220849094B984728000830210061
S1130EC0074B9847002803D1064B6B60064B2B60F9
S1130ED070BD0020EDE7C04644390000190F000042
S1130EE0B5130000390E0000BD0D000010B504005C
S1130EF0431E9841C0B253220449054B9847200031
S1130F000830044B9847002010BDC0464439000007
S1130F10190F0000E1130000002800D100BE704743
S1130F200368002B0AD08B420AD01B68002B03D025
S1130F309942FAD1012000E0002070470020FCE72C
S1130F400120FAE770B504000D00064B9847012311
S1130F505840C0B239220449044B984723682B6097
S1130F60256070BD210F000060390000190F0000DA
S1130F7003680B60016070470368002B01D01A6896
S1130F8002601800704700000300064A1268002A35
S1130F9004D0044A1068C318136070470249014A18
S1130FA01160F6E7000100201822002001204042D1
S1130FB0704780239B014B600020704701207047DD
S1130FC00020704710B503008000C01840010230B3
S1130FD00321024B98476423584310BD8D2700001A
S1130FE00139FDD87047000010B50A4A536804213E
S1130FF00B4353600220084B9847084B9847084B13
S11310009847084B9847084B98471F20074B984729
S113101010BDC04600400041CD1000007910000012
S11310209110000069100000C91000003110000088
S1131030C30707D5094A0A4B1A6219007D224B6877
S11310401A42FCD1830707D5064A054B5A62190098
S11310507D224B681A42FCD17047C046050101004D
S1131060001C004005010400024B08229A71073A53
S11310701A71704700080040044BDA69F8214901ED
S11310800A40DA6101221A747047C0460014004015
S11310908E220C4B1A75180038218C3A435C13428B
S11310A0FCD108491022CB681A42FCD0054A137DB2
S11310B080210B431375100048390E22435C134200
S11310C0FCD170470010004070470000094B9B782A
S11310D00322134098420BD0064AFF23937193785E
S11310E003218B430840184390709379002BFCD064
S11310F07047C0460004004070B505000C00431E54
S11311009841C0B230221249124B9847EC60012337
S11311102380114A23691342FCD1EB6801211A6927
S11311201142FCD10D4A1A800B491A690A42FCD1BA
S1131130EA6820231362202113691942FCD1802319
S11311405B00EA685381064B1D60002070BDC046F9
S113115080390000190F0000038000008080FFFF29
S11311600401002010B5041E1FD0C068431E98411E
S1131170C0B25C220E490F4B984704220E4B1A60F2
S1131180E26800239361082113691942FCD1E368E2
S113119008211A691142FCD11A8802210A431A80D3
S11311A006491A690A42FCD110BD0020E1E7C04695
S11311B080390000190F000000E100E00380000006
S11311C0C268044913690B42FCD110888007C00F20
S11311D07047C0460380000070470020704700003D
S11311E010B5084B1C68E3689B89DB0508D52368A8
S11311F0002B01D020009847E368802252009A8196
S113120010BDC0460401002010B5094B9C46604443
S1131210800AC0B2012808D0E622920005490020C5
S1131220054B98470120404210BD0020FCE7C04612
S113123000FCFFBDB0390000190F000070B50500B7
S11312400C000800314B9847C0B2E369DB0721D496
S113125043001B18DB002E4AD31859681C2319407D
S11312600322E3691A42FCD123689B070BD5236848
S11312700222934323600132E3691A42FCD1022221
S1131280E3691A42FCD101230B4323600322E3697F
S11312901A42FCD10122E3691A42FCD143001B1813
S11312A0DB001B4AD318596821600322E3691A4200
S11312B0FCD143001B18DB00154AD3189B686360FC
S11312C00422E3691A42FCD143001B18DB00104AD4
S11312D0D318DB68E3608901890FA981636A0D4E25
S11312E01E4001238B429B415B429B033343636259
S11312F00422E3691A42FCD143001818C000044BCD
S11313001818438AEB81002070BDC0460912000002
S113131098390000FFBFFFFF10B504001F4BC3182E
S11313209B0ADBB2002B04D01D4A1E4900201E4B31
S11313309847E369DB0718D40322E3691A42FCD116
S113134023689B070BD52368022293432360013251
S1131350E3691A42FCD10222E3691A42FCD1052353
S113136023600322E3691A42FCD10122E3691A4291
S1131370FCD10E4B23600322E3691A42FCD1C02343
S11313809B0263600722E3691A42FCD1084BA381E4
S11313900023A3733022A354002010BD00FCFFBD22
S11313A03A020000B0390000190F00000400314077
S11313B082E2FFFF70B505000C00431E9841C0B2E5
S11313C0B4220449044B98472C602000034B9847EF
S11313D070BDC046B0390000190F00001913000099
S11313E00268136802210B4313600131D369194267
S11313F0FCD17047036889B2198570470368188D5A
S1131400C0B270470368187E012318407047036810
S1131410187E8007C00F70470368187E4007C00F0E
S11314207047000070B504000D00431E9841C0B21F
S1131430044A0549054B9847256129002000044BBF
S1131440984770BD07050000B0390000190F00006F
S11314503D12000070B504001A4D431E9841C0B2FD
S1131460194A2900194EB04724692000431E9841A7
S1131470C0B2174A2900B0472368022213432360ED
S11314800132E3691A42FCD1042504220320102608
S11314901049E3691A42FCD1638B1B090340012BF9
S11314A00AD001390029F4D1013D002D06D066830C
S11314B0E3691A42FCD1EBE7002070BD06204042EC
S11314C0FBE7C046B039000024050000190F0000F6
S11314D0F4050000FFFF0000F0B5DE4657464E4617
S11314E04546E0B583B00500884604690600731ECE
S11314F09E41F3B20193B44FB44A39001800B44E7C
S1131500B0472869431E9841C0B2B822D2003900BE
S1131510B0474046431E9841C0B2AE4A3900B04776
S11315206B88DB0500D524E243465A8880235B00A0
S11315301A4341464A802A00C1C9C1C262681343A2
S113154063600422E3691A42FCD12F693B6899461F
S1131550A14A9D4901989E4B98476B68012B5AD02C
S11315607B689E4A13407B600422FB691A42FCD1CB
S11315702B885A055CD56A88D20704D56A888021ED
S1131580C9000A436A805B00954919400422FB693B
S11315901A42FCD17B6A8022D2011A4080231B02AA
S11315A01343194379620422FB691A42FCD1296965
S11315B00B7EDBB28B4A0320184204D10B7EDBB2D4
S11315C0013A002AF8D13E680421FA691142FCD19B
S11315D07A8B92B2D90700D4A0E093073ED50123B9
S11315E03B766B88802149010B436B806B887E4975
S11315F00B406B80012003001340584258410538CA
S11316006B88794A13406B8003B03CBC9046994682
S1131610A246AB46F0BD4B461B01A1D57A68802398
S1131620DB0213437B600422FB691A42FCD19FE76F
S11316306A885B00FF210B40FE39114019430422E4
S1131640FB691A42FCD17B6A8022D20113400B430E
S11316507B620422FB691A42FCD1A8E753071BD41E
S11316606B885B0535D52B88DB09062119400422DC
S1131670FB691A42FCD17B6A8022D2011340F12219
S113168013430B437B62ED3AFB691A42FCD16B882E
S1131690564A13406B8066E06B68002B04DD6B8850
S11316A08022520113436B806B881BB2002B06DB34
S11316B06B884D4A13406B8002204042A0E77A6851
S11316C0C0239B0213437B600423FA691342FCD1B9
S11316D0EEE76B68002B12D16B881BB2002B04DB86
S11316E06B88414A13406B803DE07A68C0239B02BB
S11316F013437B600422FB691A42FCD1F0E7AB6818
S11317001A782823FA540422FB691A42FCD1AB68E4
S11317100133AB606B68013B6B6024E09B0722D50F
S11317206B68002B40D052073ED43601F60F013BC4
S11317306B60002B00D01FE1002E00D122E16B88EA
S11317401BB2002B1DDB6B88274A13406B80A968F2
S11317504B1CAB600422FB691A42FCD12823FB5CBE
S11317600B7002233B76002680235B009A460321FC
S11317700422FF3B9C460133994626339B4601963F
S1131780C2E07B68184A13407B600632FF32FB6973
S11317901A42FCD17A68C0239B0213437B60042263
S11317A0FB691A42FCD1CEE702233B760220404279
S11317B026E76268C0239B02134363600422E36943
S11317C01A42FCD1B5E0C046B0390000BF050000A4
S11317D0190F0000C105000094050000FFFFFBFF86
S11317E0FE070000FFFF0000FFFEFFFFFFFBFFFFFF
S11317F002421BD16B885B0535D52B88DB0906209B
S11318001840E3691A42FCD1636A8026F60133402A
S1131810F126334303436362E3691A42FCD16B88C4
S1131820784803406B80002301936DE06B68002BC4
S113183004DD6B888020400103436B806B881BB2FE
S1131840002B07DB6B88704803406B8002235B42EC
S1131850019359E06068C0239B0203436360E3691A
S11318601A42FCD1EEE76B68002B13D16B881BB2D4
S1131870002B06DB6B88644803406B8000230193D4
S113188042E06068C0239B0203436360E3691A4239
S1131890FCD1EFE7AB681B7858462354E3691A423E
S11318A0FCD1AB680133AB606B68013B6B60002318
S11318B0019329E0002601964E461E4224D06B680F
S11318C0002B4DD002424BD1FF0E60460740013B36
S11318D06B60002B00D082E0002F00D185E06B8884
S11318E01BB2002B2CDB6B88474803406B80A86835
S11318F0431CAB60E3691A42FCD15B46E35C0370B2
S11319004B462376002301936B88504603422DD027
S11319102E69337EDBB23D48194241D1337EDBB2BE
S113192001380028F8D143465B881BB2002B00DA4B
S11319303FE76B88344A13406B800520404263E6DE
S11319406368314803406360E3691A42FCD160680C
S1131950C0239B0203436360E3691A42FCD1C2E7DC
S11319604B46237602235B420193CDE7019E300070
S11319704AE60620404247E6012B00D0E7E6002E67
S113198000D1E4E67A688023DB0213437B600422FF
S1131990FB691A42FCD16B68002B00D1CFE6D6E676
S11319A02768E0690242FCD1608B80B266461E4221
S11319B000D17FE74B46034200D119E726766B88B6
S11319C08026760133436B806B880F4E33406B80E7
S11319D06346184046424641731F019394E7012B26
S11319E000D084E7002F00D181E760688023DB0208
S11319F003436360E3691A42FCD16B68002B00D196
S1131A006DE774E7FFFBFFFFFFFEFFFFFFFF000032
S1131A1010B51402240E042C2DD8FF241440172CC6
S1131A202CD8002B12D05409036824334900091917
S1131A308900591808681F2A05D8012393400343D5
S1131A400B60002010BD0123A340F8E7540903688C
S1131A502433490009198900591808681F2A06D82F
S1131A6001239340DB4303400B600020EAE701229B
S1131A70A240D343F7E70D204042E3E70D20404264
S1131A80E0E700004B69DB0718D403224B691A42D4
S1131A90FCD10B689B070BD50B68022293430B60A8
S1131AA001324B691A42FCD102224B691A42FCD121
S1131AB001230B6003224B691A42FCD101224B69BA
S1131AC01A42FCD10160164B0B6003224B691A4287
S1131AD0FCD181238B80013BCB800B7207224B69A5
S1131AE01A42FCD10F4BCB61FF231B010B62002375
S1131AF04B628B62CB620B634B638B63CB630B6474
S1131B004B648B64CB640B654B658B65CB650B6653
S1131B100268936E01210B43936600207047C04610
S1131B2014300300C0FFFFCF0268136802210B4387
S1131B301360013153691942FCD100207047000041
S1131B4010B5FF231A000A40090C1940FE3B014C52
S1131B50A04710BD111A0000F0B5C64600B5040038
S1131B600D022D0E042D00D987E0FF260E40012E14
S1131B7000D985E0454913000F3B8B4200D982E030
S1131B8001680B7A102083430B7207274B691F42AD
S1131B90FCD1276804217B691942FCD1F0235B0046
S1131BA09A4253D8387EC3B298460F211000384B5E
S1131BB09847431E80204042424610430343DBB211
S1131BC03B762268137A10210B4313720939536947
S1131BD01942FCD101233200290020002D4FB847BF
S1131BE02268137A02218B43137205315369194217
S1131BF0FCD12268136802218B43136001315369BD
S1131C001942FCD12268022153691942FCD1002EE9
S1131C1029D1916E80235B04AB401B0C0B4393666C
S1131C202268136802210B4313600131536919427E
S1131C30FCD12268137A02210B43137205315369D4
S1131C401942FCD1002004BC9046F0BD3B7EDBB2BF
S1131C509846782110000E4B9847013843461843A4
S1131C60C0B23876ADE7916E80235B02AB40FF20B3
S1131C70000403400B439366D2E70D204042E2E7A1
S1131C800D204042DFE70D204042DCE7F10E00006A
S1131C908D270000111A0000F0B5D6464F4646467F
S1131CA0C0B594003C4B1B19DD78072D04D00E2DD4
S1131CB01AD00D20404260E000290DD00123374F97
S1131CC030269C003C19A45D8C4206D00133112BB4
S1131CD0F7D10D20404250E000239B002F49CB1840
S1131CE01C6B230A9C4616E030290DD001232B4F90
S1131CF074269C003C19A45D8C4206D00133332B1E
S1131D00F7D10D20404238E000239B002349CB1833
S1131D105C6F230A9C46702403681B5D0726B3434B
S1131D201D498A4692008F18BE78B1460726494657
S1131D300E40334301680B5504688426A35B18499D
S1131D400B405146525C1202E021C9000A40134381
S1131D50A3530268935B3F218B437F7839400B4345
S1131D609353072D0ED00E2D11D002680821137C39
S1131D700B42FCD16346D36700201CBC90469946B5
S1131D80A246F0BD074A80230168CA50EDE7064A1F
S1131D9080230168CA50E8E7CC3900004C3A0000BF
S1131DA0FFF8FFFF80FFFF0000C0FF0070B50500D3
S1131DB008002A68137A20218B4313721939536956
S1131DC01942FCD12C68042263691A42FCD1F02325
S1131DD05B00984216D8667EF6B20F210E4B9847E8
S1131DE00138064380235B423343DBB263762A68BF
S1131DF0137A20210B431372193953691942FCD108
S1131E00002070BD667EF6B27821034B98470138F6
S1131E100643F6B26676EAE78D270000F8B5CE46AB
S1131E20474680B505000E001400102A00D98EE044
S1131E30002A12D00A78023A012A00D98AE0081D41
S1131E40A1007118FF27884207D004C83A40023A1B
S1131E50012AF8D90D20404275E041491A000F3A91
S1131E608A4200D979E0190028003E4B98472A6835
S1131E70136802218B431360013153691942FCD169
S1131E802A68137A04218B4313720331536919426C
S1131E90FCD12A68062153691942FCD1D36E022170
S1131EA00B43D3662A68D36E2F490B40D366002CAC
S1131EB029D03000A40031190024FF2601239C46B8
S1131EC02A4B984602E0043088421CD02F680268EE
S1131ED0FB6E9946130C33405B003240023A9A1869
S1131EE0634693401B02424613404A461343FB6633
S1131EF00268130C33405B003240023A9B189C4248
S1131F00E1D21C00DFE72A68D16E01342401FF23EB
S1131F101C400C43D4662A68936E01210B439366DC
S1131F202A68137A03310B4313720331536919423C
S1131F30FCD12A68136802210B43136001315369F1
S1131F401942FCD100200CBC90469946F8BD0D20E6
S1131F504042F8E70D204042F5E70D204042F2E709
S1131F60F10E0000AD1D0000FF0000FF00FFFF00A8
S1131F70F0B593B0504B984780231B0153224F492F
S1131F800CA84F4CA04701004E484F4EB0470CA937
S1131F900FA84E4B984701004D48B0474D4C2000C8
S1131FA04D4B9847C021890220004C4DA847802101
S1131FB0C9022000A847A021C9022000A847C021C7
S1131FC0C9022000A847E021C9022000A847152122
S1131FD02000A84714212000A84713212000A84767
S1131FE016212000A8470E212000A8470D2120001B
S1131FF0A8470F212000A84717212000A847102137
S11320002000A84711212000A84712212000A8473A
S1132010FA25AD002A00802149022000304FB8473C
S11320202A00802189022000B8472A0000212000CC
S1132030B84704AB9C462B4B624683CB83C283CB0D
S113204083C203CB03C22B00082261462000264D25
S1132050A847002230212000244DA8470122312125
S11320602000A8470223032221492000214DA8472C
S11320700523082220492000A8470FA81F4B984792
S113208001001F48B0471F4F1F4D0F4E10AC2100D9
S11320900FA8B8470100237862782079039060790B
S11320A00290A0780190E07800902800B047FA20D0
S11320B04000164B9847E9E73D02000074010020F8
S11320C0B1010000AC3B0000FD2800001D01000030
S11320D0C83B0000640100201D0A0000450A0000FE
S11320E0710A00008C3B00004D0B0000A90A00009F
S11320F0E03B0000D90A0000E43B0000810100003D
S1132100F03B00006D010000083C00004D08000099
S113211010B50122024B5A701420024B984710BD8F
S113212008010020D522000010B5014B984710BDCE
S11321301121000010B508491423CB60074B0B6133
S113214001230B750431064C2000064B98472000F0
S1132150054B984710BDC046080100202921000006
S113216048010020110D0000D50C0000F8B5124BF9
S113217098471248124B98471248134B984700242B
S11321800E4D124F124E21002800B847210028009E
S1132190B0470134A4B2052CF5D10E4D0024074EEE
S11321A00C360D4FE1B22A003000B8470134A4B216
S11321B00635052CF6D1F8BD3521000000000020BD
S11321C065250000BC0100202D26000041260000EA
S11321D0612600009C010020E522000010B5024B9E
S11321E09847024B984710BDB1260000D526000041
S11321F010B50B00002809D111001800054B9847B1
S1132200002800DB10BD01204042FBE701204042D2
S1132210F8E7C0466D22000010B50B000138022813
S113222009D811001800054B9847002800DB10BDA1
S113223001204042FBE701204042F8E791220000E0
S113224070B50600064D2B6898680021054CA04720
S11322502B6858680021A047034B1E6070BDC04620
S11322607C000020312900002001002010B504006A
S1132270054B1868002804D08AB22100034B984704
S113228010BD0020FCE7C04620010020B509000075
S113229010B50400054B1868002804D08AB2210048
S11322A0034B984710BD0020FCE7C04620010020E6
S11322B08109000010B5044C2000044B984720000D
S11322C0034B984710BDC04668010020ED0E000086
S11322D041220000024A1388C01810807047C0468B
S11322E02401002010B50B2300280BD0002A09D0AC
S11322F001330C005C4381680B3B0B55836819194F
S113230000234A60180010BC02BC084730B5012401
S11323104B08C0010B4A1B189B18214204D00F2202
S11323201C782240102402E00F251A78AA43224385
S11323301A700122044B0818C01803781343037061
S113234030BDC0463060004140600041024A93897C
S1132350002BFCD17047C04600380042F0B506247B
S113236001250C490C4A09681388086800888342CF
S11323700BD226005E438F68F65D2E4202D10133F4
S11323809BB2F4E71380002002E0002301201380B5
S1132390F0BDC0460802002028010020F0B5674FB8
S11323A089B00390B84702220C25654C23889343D7
S11323B02380B847039B634E5D433368616C5B685D
S11323C05B195B681B021A0A0B0E1B06134363643A
S11323D0B84733685B685B59E363B8470623039ADD
S11323E0316853438A68D2189288A26403970227FB
S11323F08A68D2181078384201D0052010708A6893
S1132400D75C039BFF067F0F9847002F0AD13368E0
S11324104D495B68A26C5B199B7A1B09CB181B7A2C
S11324201B0402E0FC22A36C92031343A364039BEA
S11324309847336821695B68414F5B195A7A0723CF
S113244012091A40414B12050B4013432361039BAD
S113245098470322336821885B685B195B7A1A40CA
S11324603B4B12020B4013432380039B98470721E5
S113247033685B685B19DA7A23690A4035491204C8
S11324800B4013432361039B98473368A16C5B683B
S11324905D192B7A02251A060B021B0A1343A36447
S11324A0039B984723882B4323802B4B5E68002E85
S11324B03BD00124BB6C1B0E04933B691B051B0F13
S11324C005933B889B059B0F0693039B98473B888A
S11324D0AB433B80039B98473B7923433B71039B6E
S11324E098473B792B433B71039B984708213B69F1
S11324F007931A4B1A6813780B431370039B98477E
S11325003B69144A13403B61079B069A059904985A
S11325100093134BB047039B98473B881D433D8072
S1132520039B98473B7F234304E0039B9847012286
S11325303B7F13433B7709B0F0BDC0464D230000F9
S11325400038004208020020303C0000FFFF8FFFEB
S1132550FFFCFFFFFFFFF8FF28010020040200201A
S113256010380042F7B501000B20002953D00B6846
S11325700C24188800231D001F009AB2904209D928
S113258022005A434E680133B21816685268374322
S11325901543F2E70220002D3DD0002401263B0420
S11325A02B430193019BE340334210D01A4B1B4A47
S11325B00E33E35C0020191E1F2907D92039C9B244
S11325C001201F2902D90220403BD9B2904701348F
S11325D0202CE7D1124EB0470023124C2380124B1B
S11325E01B7A0193002B0DD1B047019BA361A36912
S11325F01F43A761B047A3690B4A1D430123A5618B
S1132600137207E0B047A3691F43A761B047A369EA
S11326101D43A5610020FEBD303C00000D230000D9
S11326204D23000000380042280100200B2300281D
S113263002D0024B18600023180070470C020020DF
S11326400B2300280AD003681A8802238A4205D380
S1132650043359438268053B8B54002318007047A8
S1132660020010B50B20002A1FD0136809381C88FB
S11326708C421AD39B789268402B05D18D203A3B2B
S11326804B438000D31807E0803BDBB2012B05D815
S113269006234B430548D31898800020062359434A
S11326A0511802220B7813430B7010BD670500000C
S11326B00220074B9A7AD2B2024202D0997A01439D
S11326C0997201210A4202D09A7A0A439A72704797
S11326D000380042F8B5234B98470221224A138858
S11326E08B431380214B9847214B224C224A198853
S11326F01888238812685B00D052204B89B21B785B
S11327002000012B02D0022B0FD029E023880133B3
S113271023801B4B9847002805D11A4B20889847E3
S1132720042323721CE0E36819E0174B24881D6816
S11327300C2363436A680027D3180F229E7A16403D
S1132740DA7A964201D2921BD7B206221300F940DC
S11327506343AD68EB1859800223037203699847F9
S1132760F8BDC0464D23000000380042B1260000E9
S113277058380042280100200C0200207A00002072
S11327805D2300009D23000008020020002243086E
S11327908B4274D303098B425FD3030A8B4244D325
S11327A0030B8B4228D3030C8B420DD3FF22090267
S11327B012BA030C8B4202D31212090265D0030B26
S11327C08B4219D300E0090AC30B8B4201D3CB031C
S11327D0C01A5241830B8B4201D38B03C01A52415E
S11327E0430B8B4201D34B03C01A5241030B8B4260
S11327F001D30B03C01A5241C30A8B4201D3CB024B
S1132800C01A5241830A8B4201D38B02C01A52412F
S1132810430A8B4201D34B02C01A5241030A8B4232
S113282001D30B02C01A5241CDD2C3098B4201D34A
S1132830CB01C01A524183098B4201D38B01C01AC8
S1132840524143098B4201D34B01C01A524103093F
S11328508B4201D30B01C01A5241C3088B4201D3EE
S1132860CB00C01A524183088B4201D38B00C01A9B
S1132870524143088B4201D34B00C01A5241411AC2
S113288000D20146524110467047FFE701B50020CF
S113289000F006F802BDC0460029F7D076E770477D
S11328A07047C04670B500260C4D0D4C641BA41037
S11328B0A64209D1002601F01FFA0A4D0A4C641BF6
S11328C0A410A64205D170BDB300EB589847013659
S11328D0EEE7B300EB5898470136F2E7043D0000F9
S11328E0043D0000043D0000083D00000300821880
S11328F0934200D1704719700133F9E70FB40B4BC1
S113290013B51C68002C05D0A369002B02D120004C
S113291000F088FA05AB049AA1682000019300F046
S11329205DFC16BC08BC04B01847C0467C000020FF
S11329304A424A41802310B55200DB0000F002F8FD
S113294010BD0000F0B51D004F4B85B01E6804009B
S11329500F000092002E05D0B369002B02D1300085
S113296000F060FA494B9C4250D17468009B022BE2
S113297005D0012B00D984E0002D00DA81E021008C
S1132980300000F0E1F9616B002908D023004433E2
S1132990994202D0300000F051FB0023636300230E
S11329A0A3616360A3891B0603D52169300000F08D
S11329B045FBA389364A1340A381009B022B5AD0BE
S11329C003AB02AA2100300000F0C2FAA389184325
S11329D0A081002D24D1029D280000F025FB019543
S11329E0071E42D1029B0193AB4239D101204042E0
S11329F00223A2891343A3810023A3602300473346
S1132A00236023610123636105B0F0BD214B9C4227
S1132A1001D1B468AAE7204B9C42A7D1F468A5E78A
S1132A20002FD9D0B369002B02D1300000F0FAF99D
S1132A30009B012B03D1A389009A1A43A281082089
S1132A40A389276027616561184018D001201840C8
S1132A500023984211D06D42A360A5611800D3E70A
S1132A60019800F0E1FA071EC0D08023A289019DDD
S1132A701343A381D6E70020BAE7A560C4E7A060AA
S1132A80C2E701204042BFE77C000020843C0000F4
S1132A905CF3FFFFA43C0000643C0000F8B50500B3
S1132AA00E001400002804D08369002B01D100F02B
S1132AB0B9F9224B9C422DD16C68A369A360A38908
S1132AC01B0731D52369002B2ED023682269F7B266
S1132AD0981A6369F6B2984205DB2100280000F0D9
S1132AE033F9002826D1A3680130013BA360236891
S1132AF05A1C22601F706369984204D0A389DB07C3
S1132B001AD50A2E18D12100280000F01DF900283A
S1132B1012D00FE00A4B9C4201D1AC68CDE7094BBF
S1132B209C42CAD1EC68C8E72100280000F00CF8E8
S1132B300028CAD0012676423000F8BD843C00004B
S1132B40A43C0000643C0000364B70B51D680600D0
S1132B500C00002D05D0AB69002B02D1280000F039
S1132B6061F9314B9C420FD16C680C23E25E93B245
S1132B7019072DD4D90611D4092301203360373322
S1132B801343A381404270BD284B9C4201D1AC68E1
S1132B90EBE7274B9C42E8D1EC68E6E75B0713D5EB
S1132BA0616B002908D023004433994202D03000DD
S1132BB000F044FA002363632422A3899343A3818E
S1132BC000236360236923600823A2891343A3813C
S1132BD02369002B0BD1A0218022A38989009200B4
S1132BE00B40934203D02100300000F0D9F90123B7
S1132BF0A289134011D00023A36063695B42A361DF
S1132C00002023698342BED10C23E25E1306BAD5A9
S1132C1040231343A3810138B5E7920700D46369C5
S1132C20A360EDE77C000020843C0000A43C00008D
S1132C30643C0000F7B58A8905000C00130760D4D2
S1132C404B68002B04DC0B6C002B01DC0020FEBD68
S1132C50E76A002FFAD000232E682B6080235B01E3
S1132C601A4034D0606DA3895B0706D56368C01A27
S1132C70636B002B01D0236CC01A0200216A00236D
S1132C802800E76AB847A189431C06D12B681D2B8D
S1132C9031D82C4ADA40D3072DD500236360236949
S1132CA02360CB0405D5431C02D12B68002B00D133
S1132CB06065616B2E600029C8D0230044339942BB
S1132CC002D0280000F0BAF900206063BFE70123B6
S1132CD0216A2800B847431CC5D12B68002BC2D0F9
S1132CE01D2B01D0162B01D12E60AFE74023A28902
S1132CF01343A381ABE740230B430120A38140424C
S1132D00A5E70F69002FA1D00B680F60DB1B0193AF
S1132D100023920700D14B69A360019B002B00DCC8
S1132D2094E7019B3A00216A2800A66AB04700286C
S1132D3003DC4023A2891343DFE7019B3F181B1ADE
S1132D400193EAE7010040200B6970B505000C000F
S1132D50002B01D1002070BD002804D08369002B12
S1132D6001D100F05FF80B4B9C4209D16C680C2236
S1132D70A35E002BEED021002800FFF75BFFEAE7FB
S1132D80054B9C4201D1AC68F1E7044B9C42EED167
S1132D90EC68ECE7843C0000A43C0000643C0000C8
S1132DA010B5024900F0B2F810BDC046492D00002C
S1132DB0002310B50400036043608360818143668F
S1132DC0C281036143618361190008225C30FFF70B
S1132DD08DFD054B24626362044BA362044BE362E2
S1132DE0044B236310BDC04649370000713700000F
S1132DF0A9370000D537000070B568254A1E554331
S1132E000E002900743100F063F9041E08D000217B
S1132E102A00016046600C30A0606832FFF766FD4E
S1132E20200070BD836913B50400002B28D183648E
S1132E30C3640365134B144A1B688262019398426E
S1132E4001D101238361200000F020F8606020009C
S1132E5000F01CF8A060200000F018F80022E060E8
S1132E6004216068FFF7A4FF01220921A068FFF78D
S1132E709FFF02221221E068FFF79AFF0123A3615A
S1132E8013BDC046603C0000A12D0000F8B51E4BE8
S1132E9007001E68B369002B02D13000FFF7C2FFA0
S1132EA04836B4687368013B04D53368002B07D0F7
S1132EB03668F6E70C22A55E002D0DD06834F2E7E3
S1132EC004213800FFF798FF30600028F0D10C236C
S1132ED004003B602000F8BD012320005B42E38135
S1132EE00233A38165662560A5606560256165611F
S1132EF0A561082229005C30FFF7F8FC6563A5632F
S1132F00A564E564E6E7C046603C0000F7B504004C
S1132F100700002601914834002C01D13000FEBD89
S1132F206368A5680093009B013B009301D5246866
S1132F30F2E7AB89012B08D90E22AB5E013304D032
S1132F4029003800019B984706436835EBE70000E9
S1132F5070B50E001D000E23C95E90B01400002948
S1132F6007DA00232B60B3891B0611D48023DB000E
S1132F700FE001AA00F05AFC0028F2DBF022029BC9
S1132F8012021340054A9B185A4253412B60EDE745
S1132F9040230020236010B070BDC04600E0FFFF56
S1132FA0F7B502268B8905000C00334206D02300B6
S1132FB047332360236101236361F7BD01AB6A4694
S1132FC0FFF7C6FF00990700280000F081F80028E9
S1132FD008D10C22A35E9A05EFD4032293431E4327
S1132FE0A681E4E70F4BAB628023A28920601343E0
S1132FF0A381009B20616361019B002B0DD00E23F4
S1133000E15E280000F024FC002806D00322A389F6
S113301093431A0001231343A381A0893843A08159
S1133020CBE7C046A12D000010B5034B0100186882
S113303000F04EF810BDC0467C00002070B50500BD
S1133040002910D00C1F2368002B00DAE418280094
S113305000F02FFC1D4A1368002B05D16360146037
S1133060280000F027FC70BDA34209D9216860182C
S11330708342F3D118685B6841182160EEE71300BE
S11330805A68002A01D0A242F9D919685818A042F6
S11330900BD120680918581819608242E0D11068D1
S11330A05268411819605A60DAE7A04202D90C2329
S11330B02B60D5E721686018824203D110685268FA
S11330C04118216062605C60CAE7C046400100208C
S11330D0032370B5CD1C9D43083506000C2D1ED26C
S11330E00C25A9421DD8300000F0E3FB254A1468E2
S11330F02100002919D1244C2368002B03D130006E
S113310000F010FB20602900300000F00BFB431C92
S11331102CD10C233000336000F0CCFB03E0002DF5
S1133120DFDA0C233360002070BD0B685B1B1AD4FC
S11331300B2B03D90B60CC18256003E08C420ED115
S113314063681360300000F0B5FB200007220B30E9
S1133150231D9043C31AE7D05A42E250E4E74B6878
S113316063600C00EEE70C004968C2E70323C41C4B
S11331709C43A042E0D0211A300000F0D3FA431C53
S1133180DAD1C6E74001002044010020936810B55D
S1133190013B9360002B05DA9469A34208DBCBB2B0
S11331A00A2B05D01368581C10601970C8B210BDE2
S11331B0FFF774FCFBE7F8B506000F001400D51800
S11331C0AC4201D1002007E021783A003000FFF73B
S11331D0DDFF0134431CF3D1F8BD0000F0B59FB00E
S11331E006000F0014000593002804D08369002B07
S11331F001D1FFF717FE7F4B9F425CD17768BB89F3
S11332001B0762D53B69002B5FD0002306AD6B61C1
S113321020336B761033AB760294029C2378002B18
S11332205DD1029BE31A04930DD0049B029A3900EA
S11332303000FFF7C0FF431C00D1CCE06A69049B57
S1133240944663446B612378002B00D1C3E00122D0
S1133250002352426A6002A95432521801342B608E
S1133260EB60AB601370AB6521780522624800F017
S113327015FB631C9C46002835D12968CB0604D570
S1133280532302AA20309B1818700B0704D553232C
S11332902B2002AA9B18187023782A2B2CD00020EC
S11332A00A21099B2278303A092A00D86BE00028C9
S11332B02AD0099328E0514B9F4201D1B7689EE779
S11332C04F4B9F429BD1F76899E739003000FFF7D5
S11332D03BFC002899D0012040421FB0F0BD252BB3
S11332E09FD001349AE7444B2968C01A01238340D4
S11332F00B432B606446B7E7059B181D1B680590BC
S1133300002B3ADB0993644623782E2B0BD1637888
S1133310621C2A2B3FD1059B02341A1D1B6805929F
S1133320002B35DB079321780322364800F0B6FAE8
S1133330002807D0334B2A68C01A40238340134324
S11333402B6001342178631C06222F4802932976CE
S113335000F0A4FA002844D02C4B002B2FD129686C
S1133360059B0722C90528D59B1893430833059369
S11333706B69039A9B186B614FE75B42EB60022316
S11333800B432B60BFE74B4301349B18012089E7B3
S113339001235B42C6E7002314000A201A006B6075
S11333A021783039092903D9002BBCD00792BAE718
S11333B04243013452180123F2E70733D5E705AB42
S11333C000933A00124B2900300000E000BF039044
S11333D0039B0133CCD1BB895B0600D57BE70B98FB
S11333E07BE705AB00933A00094B2900300000F05D
S11333F07FF8ECE7843C0000C43C0000A43C0000DF
S1133400643C0000CA3C0000CE3C00000000000008
S1133410B7310000F7B5150001938A680B69009075
S11334200C00934200DA130022002B60433212781E
S1133430002A01D001332B6023689B0602D52B6838
S113344002332B60062723681F4027D02300433311
S11334501B785A1E93412268920630D422000199A7
S113346043320098089EB047431C25D006232068A9
S11334702A68E16803400025042B03D18D1AEB432D
S1133480DB171D40A3682269934201DD9B1AED18E6
S11334900027BD4220D1002010E00137E3682A68EC
S11334A09B1A9F42D2DA2200012319320199009813
S11334B0089EB047431CF0D101204042FEBD30209D
S11334C0E1184331087021005A1C45310978A218CB
S11334D0433202331170C1E7220001231A320199E9
S11334E00098089EB047431CE6D00137D1E700009E
S11334F0F0B58BB006920A0043320793059004920C
S11335000A7E0C00109B6E2A00D18FE017D8632A24
S11335102CD008D8002A00D199E0582A54D026008B
S11335204236327029E0642A01D0692AF7D1216831
S11335301A68080623D5111D1960156825E0732A39
S113354000D188E008D86F2A29D0702AE7D1202238
S113355009680A43226003E0752A20D0782ADED164
S113356022007821453211706C4A30E00E001A684E
S11335704236111D196013683370012379E049063E
S1133580D9D5111D19600023D55E002D03DA2D2332
S1133590049A6D421370624B0A2703932FE020684C
S11335A01968050603D5081D18600D6805E0400676
S11335B0F9D50D68081D1860ADB2594B082703935F
S11335C06F2A18D00A2716E045310A70544A03922C
S11335D01A682168101D18601568080622D5CB07E3
S11335E002D52023194321601027002D03D1202365
S11335F022689A4322602300002243331A706368CE
S1133600A360002B5CDB0422216891432160002D20
S113361058D1049E002B64D02600039B42361B78AD
S113362033705EE04806DAD5ADB2D8E709681A68A7
S1133630080605D5111D1960136862691A6006E051
S11336404906F7D5111D19601368A28A1A80002350
S1133650049E236154E01A68111D19601668002144
S11336606268300000F01AF9002801D0801B606005
S1133670636823610023049A137041E023693200D4
S113368006990598079DA847431C43D02368002545
S11336909B070FD4099BE06898423DDA18003BE091
S11336A022000123193206990598079EB047431C4E
S11336B030D00135E368099A9B1A9D42F0DBE9E7B3
S11336C0002DA9D0049E28003900FFF7E5F8039BDC
S11336D0013E5B5C280033703900FFF757F8051E84
S11336E0F1D1082F09D12368DB0706D56368226965
S11336F0934202DC3023013E3370049B9B1B236105
S1133700079B09AA00932100069B0598FFF782FEF8
S1133710431CB3D1012040420BB0F0BDE63C000095
S1133720D53C0000002370B5064C0500080023605A
S1133730FDF72AFC431C03D12368002B00D02B6027
S113374070BDC0461002002070B50C000E25495F04
S113375000F0B2F8002803DB636D1B18636570BDCD
S1133760A389024A1340A381F9E7C046FFEFFFFF94
S1133770F8B51F008B8905000C001600DB0505D584
S11337800E23C95E0022022300F074F8A389054ABF
S113379028001340A38132000E23E15E3B0000F0B9
S11337A01FF8F8BDFFEFFFFF70B50C000E25495F51
S11337B000F060F8A389421C03D1054A1340A38199
S11337C070BD802252011343A3816065F8E7C046AF
S11337D0FFEFFFFF10B50E23C95E00F015F810BD12
S11337E070B50500080011000022064C22601A0082
S11337F0FEF712FD431C03D12368002B00D02B607D
S113380070BDC04610020020002370B5064C0500B0
S113381008002360FDF7CAFB431C03D12368002B77
S113382000D02B6070BDC04610020020002370B58C
S1133830064C0500080011002360FDF7BAFB431C89
S113384003D12368002B00D02B6070BD1002002030
S1133850002370B5064C050008002360FDF7AEFB9D
S1133860431C03D12368002B00D02B6070BDC046DD
S11338701002002070B50500080011000022064C5B
S113388022601A00FDF79CFB431C03D12368002B24
S113389000D02B6070BDC04610020020C9B282184F
S11338A0904201D10020704703788B42FBD0013055
S11338B0F6E770477047000070B505000800110076
S11338C00022064C22601A00FEF792FC431C03D12E
S11338D02368002B00D02B6070BDC046100200206E
S11338E02E2E2F68616C2F7372632F68616C5F6971
S11338F032635F6D5F73796E632E63002E2E2F68C3
S1133900616C2F7372632F68616C5F696F2E630043
S11339102E2E2F68616C2F7372632F68616C5F7336
S11339206C63645F73796E632E6300002E2E2F68C0
S1133930616C2F7372632F68616C5F74696D65725B
S11339402E6300002E2E2F68616C2F7372632F6814
S1133950616C5F75736172745F73796E632E63005B
S11339602E2E2F68616C2F7574696C732F737263BC
S11339702F7574696C735F6C6973742E6300000037
S11339802E2E2F68706C2F7274632F68706C5F72A8
S113399074632E6300000000010000001400200086
S11339A000010000490000000000D7000024F400DA
S11339B02E2E2F68706C2F736572636F6D2F687075
S11339C06C5F736572636F6D2E6300000001000706
S11339D000040007000500070006000700070007B1
S11339E00108010E010A010E010C010E010E010E67
S11339F00110010E0112010E0114010E0116010E37
S1133A000001000700010007000100070001000792
S1133A100001000700010007000100070001000782
S1133A200001000700010007000100070001000772
S1133A300001000700010007000100070001000762
S1133A400001000700010007000100070001000752
S1133A500001000700010007000100070001000742
S1133A600001000700010007000100070001000732
S1133A70000100070001000700010007000000002A
S1133A803077000031240000325D0000336D000007
S1133A90342E0000356B0000367B00003725000013
S1133AA0387F0000392F0000613F0000627A000077
S1133AB063530000647C0000655B0000661B00002B
S1133AC030173A003102080032C5280033C32800F9
S1133AD034C2180035C3300036C73000370228001E
S1133AE038C7380039C3380061C6380062A32900DA
S1133AF0630530006423290065C5300066C43000C6
S1133B006787300068C6180069C618006A0708008D
S1133B106B4C12006C0510006D061E006E0E1C002E
S1133B206F07380070C43800710F380072CC380049
S1133B3073493000742021007507180076141200B0
S1133B40771E18007818060079C318007A1122002D
S1133B502DC000002BE001002F1002003DC1000029
S1133B6023E309002A18060027080000291004008E
S1133B7028080200404F280024E3310025121200D7
S1133B805C0804005F010000000000000200000067
S1133B900300000002000100030001000200040011
S1133BA00300040002000500030005006164786C52
S1133BB03334355F6465765F696E69742829203D06
S1133BC03E2025640A0000006164786C3334355F5C
S1133BD0696E69742829203D3E2025640A0000008E
S1133BE03233340061626364656667680000000014
S1133BF06164786C3334355F73746172742829207E
S1133C003D3E2025640A0000726567733A202564EE
S1133C10202530327825303278202530327825300E
S1133C2032782025303278253032780A00000000BE
S1133C3007001300350090003F1C0B0503010B0A1D
S1133C40090845464243020324252627282914153A
S1133C5016175C1B1E1F0405060710111213000023
S1133C6080000020000000000000000000000000B0
S1133C700000000000000000000000000000000040
S1133C800000000000000000000000000000000030
S1133C900000000000000000000000000000000020
S1133CA00000000000000000000000000000000010
S1133CB00000000000000000000000000000000000
S1133CC000000000232D302B2000686C4C0065663A
S1133CD06745464700303132333435363738394159
S1133CE0424344454600303132333435363738396F
S1133CF06162636465660000F8B5C046F8BC08BC40
S1133D009E467047D1000000F8B5C046F8BC08BC18
S10B3D109E467047A900000063
S1133D1874000020380000209C0100209401002039
S1133D282C000020C80100201C00002014010114EC
S1133D38010114010114010114010100050004002A
S1133D480500140514010000000010000000200004
S1133D58000000040010000000002000000000041F
S1133D68001000000008000000000004000010001B
S1133D780008000000000004002000000008000003
S1133D88000000040500403000020100800000200B
S1133D9800000000843C0000A43C0000643C0000D7
S1133DA80000000000000000000000000000000007
S1133DB800000000000000000000000000000000F7
S1133DC800000000000000000000000000000000E7
S1133DD800000000000000000000000000000000D7
S1133DE800000000000000000000000000000000C7
S9030000FC
